:020000040800F2
:10000000E009002041020008053B0008C92B000858
:10001000CD2B0008E50E000891400008000000000C
:10002000000000000000000000000000C13B0008CC
:10003000E90E0008000000005702000859020008FD
:100040005B0200085B0200085B0200085B0200081C
:100050005B0200085B0200085B0200085B0200080C
:100060005B0200085B0200085B0200085B020008FC
:100070005B0200085B0200085B0200085B020008EC
:100080005B0200085B0200085B0200085B020008DC
:100090005B0200085B0200085B0200085B020008CC
:1000A0005B0200085B0200085B0200085B020008BC
:1000B0005B0200085B020008893C00085B02000844
:1000C0005B0200085B0200085B0200085B0200089C
:1000D0005B02000825400008494000085B02000858
:1000E0005B0200085B0200085B0200085B0200087C
:1000F0005B0200085B0200085B0200085B0200086C
:100100005B0200085B0200085B0200085B0200085B
:100110005B0200085B0200085B0200085B0200084B
:100120005B0200085B0200085B0200085B0200083B
:1001300000F002F800F074F80AA090E8000C824485
:100140008344AAF10107DA4501D100F069F8AFF262
:10015000090EBAE80F0013F0010F18BFFB1A43F0A5
:1001600001031847DC7B0000FC7B00000A444FF0D1
:10017000000C10F8013B13F0070408BF10F8014B06
:100180001D1108BF10F8015B641E05D010F8016B4B
:10019000641E01F8016BF9D113F0080F1EBF10F8AF
:1001A000014BAD1C0C1B09D16D1E58BF01F801CBD2
:1001B000FAD505E014F8016B01F8016B6D1EF9D555
:1001C0009142D6D37047000000230024002500266A
:1001D000103A28BF78C1FBD8520728BF30C148BFAA
:1001E0000B607047642900F0BD80752900F0BA806B
:1001F000782900F0F380632900F0C583732900F0AB
:10020000CA83002070471FB500F028FE04000020BC
:10021000002106F0FDFB401C60601FBD10B510BD45
:1002200000F0E4FD1146FFF7EEFF04F039FE00F0A8
:100230000BFE03B4FFF7F2FF03BC04F082FA0000E8
:100240000948804709480047FEE7FEE7FEE7FEE76A
:10025000FEE7FEE7FEE7FEE7FEE7FEE704480549A6
:10026000054A064B70470000853C00083101000834
:10027000E0030020E0090020E0050020E005002068
:10028000704700000FB4044910B503AA029800F0AB
:1002900087FB10BC5DF814FB080000200FB41CB5F0
:1002A000074B06AA7B4469460090059800F049FB7D
:1002B0000020694600F058FB1CBC5DF814FB0000F0
:1002C000C106000070B5044685690068C10601D505
:1002D000302600E02026C00707D070BDD4E90121F8
:1002E00030469047206A401C20626D1EF6D570BDD6
:1002F00070B5044685690078C00707D170BDD4E9A0
:10030000012120209047206A401C20626D1EF6D5F6
:1003100070BD70B50C460546012A05D028788006C8
:1003200000D5EA69002302E0012305E05B1C93424B
:1003300002D2E05C0028F9D1A869E618C01AA861C9
:10034000286A184428622846FFF7BCFF04E0D5E974
:10035000012114F8010B9047B442F8D32846FFF767
:10036000C7FF70BD2DE9F0410646002410687529CD
:10037000314616A510D0AFF30080002802DA4042C3
:1003800013A507E031688A0701D512A502E04907E5
:1003900004D511A5012401E0AFF3008000210A2259
:1003A00006F1240709E0B0FBF2FCB0FBF2F302FB1C
:1003B0001C00303078541846491C0028F3D12346DD
:1003C0002A463046BDE8F04100F05CBA000000006B
:1003D0002D0000002B0000002000000070B5044636
:1003E0000D4621461068AFF300802188090502D52B
:1003F0000F4A7A4402E00E4A7A440E32002104F198
:10040000240305E000F00F060009965D5E54491CC8
:100410000028F7D120780023000704D5702D02D0E2
:1004200009B1022311322046BDE8704000F02ABA1B
:100430000E7700002DE9F05F894604464FF0000A70
:10044000DFF874B1FB44C0F820A02046E16888477B
:10045000002874D0252806D0D4E901219047206ACD
:10046000401C2062F1E700265F462046E16888478D
:100470002028054607DB312D05D2781910F8200C0D
:1004800008B10643F1E7B00701D526F00406C4F829
:100490001CA00027C4F818A02A2D09D0284604F073
:1004A00049F938B304EB8708303DC8F8185019E013
:1004B00059F8041B204604EB87029161E1688847E4
:1004C000012F054618D1E069002820DA26F0200621
:1004D0001DE0D8F8180000EB800005EB4000303834
:1004E000C8F818002046E1688847054604F022F95C
:1004F0000028EED1012F0AD02E2D08D12046E16828
:1005000088477F1C0546022F46F02006C4DBA06901
:10051000002803DA404246F00106A061F00701D04E
:1005200026F010066C2D0BD0682D09D04C2D39D03B
:100530006A2D35D0742D35D07A2D33D016E038E0C1
:10054000E1682F4620468847B842054609D16C2FFE
:1005500026D04FF48060E168064320468847054670
:1005600004E06C2F1AD04FF4807006430DB3A5F150
:100570004100192802D8203546F400664A4629462B
:10058000204626604E46FFF72DFE80B101280BD095
:10059000F61D26F0070000F1080956E74020E4E7C1
:1005A0008020D8E70020D6E706F104094DE7284669
:1005B00052E7206ABDE8F09FE47600000FB400B572
:1005C0008DB010A9099000910B904FF0FF300A9068
:1005D00000200C90064878440690064878446A4605
:1005E00007900F9909A800F001FA0DB05DF814FB0F
:1005F000330400004B0400002DE9FF5F1D464FF05F
:10060000FF3B91464FF000085F46D5E90146A969D6
:1006100001987F1C8847296A824688470028F6D1BE
:10062000BAF1FF3F0CD0002E24F4C06419DD60063F
:1006300014D5BAF12B0F09D0BAF12D0F0ED103E06A
:10064000584604B0BDE8F09F44F48064A96901985D
:100650007F1C8847761E8246002E02DDBAF1300FDD
:1006600003D0B9F1000F26D032E0A969761E0198B7
:100670007F1C44F400748847002E824605DDBAF1E1
:10068000780F06D0BAF1580F03D0B9F1000F10D08F
:100690001EE0B9F1000F02D0B9F1100F18D1A9690D
:1006A000761E01987F1C24F400748847824610202F
:1006B00002E0082000E00A20814609E0A96908FB61
:1006C0000908761E01987F1C44F40074884782460E
:1006D000002E05DD4946504600F074F90028EDDA99
:1006E000E96901988847A00502D46FF00100A8E7E6
:1006F000E00725D1600613D5600502D5C8F10000DA
:1007000000E0404629680A1D2A600968220501D5D3
:10071000087015E0220701D5088011E008600FE09D
:100720002868011D29600068210502D580F8008035
:1007300006E0210702D5A0F8008001E0C0F80080A3
:1007400038467EE710B5431C02E010F8011B71B17A
:100750008107FAD14FF0013202C88C1A8C4314EA97
:10076000C211F9D0C01A0A0603D0C01E10BDC01AAB
:1007700010BD0A0401D0801E10BD0902FCD0401E2D
:1007800010BD40EA010370B59B072ED14FF0013632
:10079000042A2AD308C810C99D1B9D43121F15EABD
:1007A000C61517D0D8B2E1B2401A50EA056110D18F
:1007B00098B2A1B2401A50EA05410AD123F07F4015
:1007C00024F07F41401A50EA052102D1180EA0EB17
:1007D000146070BDA342DBD018BA21BA884201D997
:1007E000012070BD4FF0FF3070BD0AB9002070BD10
:1007F00010F8013B11F8014B63B1A3420AD1521E1C
:1008000008D010F8013B11F8014B1BB1A34201D1F4
:10081000521EEDD1181B70BD4FF0000200B51346FB
:1008200094469646203922BFA0E80C50A0E80C5010
:10083000B1F12001BFF4F7AF090728BFA0E80C50C1
:1008400048BF0CC05DF804EB890028BF40F8042BBA
:1008500008BF704748BF20F8022B11F0804F18BF27
:1008600000F8012B7047704770477047704710B50C
:1008700000F0ECF8006810BD10B5044600F0E6F892
:10088000046010BD2DE9F0470D4699469246044696
:1008900000F124080168880604D5E06921F0100100
:1008A000216000E00120A84201DD471B00E0002795
:1008B000A1697A1902EB0900081AA0612078C00624
:1008C00002D42046FFF7FEFC002608E0D4E901210F
:1008D0001AF806009047206A401C761C20624E459C
:1008E000F4DB2078C0060AD52046FFF7EBFC06E0D3
:1008F000D4E9012130209047206A401C2062381E34
:10090000A7F10107F4DC07E0D4E9012118F805009C
:100910009047206A401C2062281EA5F10105F3DCE7
:100920002046FFF7E5FC2078000602D50220BDE84E
:10093000F0870120FBE7000001694A1C026108788A
:10094000704700B58FB0CDE901310021059105490F
:100950007944CDE9031011466846FFF76BFD0FB0EF
:1009600000BD0000E5FFFFFF0A6802F8010B0A6006
:10097000704710B5436913B1AFF3008001E0FFF792
:10098000C8FC012010BD127800F124010A70002279
:100990004A700122EDE711684FF0FF32E9E70000ED
:1009A000074B70B50D467B44FFF7CBFF0446284646
:1009B00000F014FA10B14FF0FF3070BD204670BD4A
:1009C000774200003A2800D2303820F02002412A35
:1009D00001D3A2F13700884201D34FF0FF307047B6
:1009E000026811441378016018467047D1600549C8
:1009F0007944516104497944116200211161114621
:100A000000F032B8EDFFFFFF5B000000426842B12A
:100A1000016811F8013B23B1521EC0E900121846CB
:100A200070470121C160881E704742685AB1C3688F
:100A3000016843B983688B4205D0491E521CC0E946
:100A40000012002070474FF0FF3070470048704799
:100A50008003002010B5044600F0EEF90068005D48
:100A600000F0010010BD00002DE9F34F4FF0000A27
:100A70000C4656468DB001200C9001F10C000B90F5
:100A800062690B9801219047051E2DD0252D2CD091
:100A9000216A8847C0B162690B9801219047216A99
:100AA00088470028F7D16269411E0B98904700E003
:100AB000761CA1690D988847216A88470028F7D1DC
:100AC000E1690D988847DBE7A1690D988847A8423E
:100AD000074601D1761CD3E7E1690D9888477F1C52
:100AE00002D1BAF1000F6FD06CE162690B98002758
:100AF0003D46394690472A2804D162690B98012166
:100B000090470125DFF8D08262690B980121904758
:100B1000A0F130010A290AD24745E5DC07EB87013D
:100B200000EB4107303FDFD445F01005ECE7E90664
:100B300001D46FF000476C280AD04C2814D06828E4
:100B400015D06A280DD074281CD07A281AD01DE040
:100B500062690B98012190476C2802D045F004058A
:100B600014E045F002050DE045F020050AE0626959
:100B70000B9801219047682802D045F0080505E050
:100B800045F4006562690B9801219047C4E901575B
:100B900065283DD019DC58287AD00CDC452837D0A0
:100BA00004DC252826D041289ED131E046282FD0CC
:100BB000472899D12CE05B2877D0612828D063287A
:100BC0007CD0642823D15AE0F7E06F2848D008DCB5
:100BD00066281DD067281BD0692821D06E2816D121
:100BE00027E0702845D0732868D0752847D078282A
:100BF0000DD14DE0A1690D988847252805463FF4A1
:100C000069AFE1690D9888476D1C3FF46AAFD9E080
:100C10000D9923466A466FF00100AFF30080C6E0ED
:100C200045F0400023464FF000026060A80736D42C
:100C30003EE0E8077FF447AF2068011D21600068AF
:100C4000290501D506701BE7290701D5068017E79E
:100C5000A90703D5F117C0E9006111E706600FE7A6
:100C600045F0400023464FF008026060A80716D404
:100C70001EE040F60E0125EA0100606016E045F036
:100C8000400023464FF00A026060A80707D40FE037
:100C900045F040006060A80708D5234610220D9952
:100CA0006FF00100AFF3008081E007E010222346DF
:100CB0000D996FF00100FFF79FFC78E04FF00009FD
:100CC00063284F46C8464B46CB4602D05B2807D028
:100CD00039E02079C00601D40120A060012732E06C
:100CE0006269D4F80CB00B98012190475E2807D1B7
:100CF0004FF0010949466269D4F80CB00B9890474F
:100D0000216939B900210A4603AB43F82120491C67
:100D10000829FADBD8B3216949B308F101086269EF
:100D20000B98012190475D28F4D1B9F1000F09D04B
:100D3000002003A951F82020D24341F82020401C74
:100D40000828F7DB03AB2069002820794FEA4070C0
:100D50001ED05B462246CDF80080CDE901970D9963
:100D600000286FF0010020DAAFF300801FE0C11708
:100D700003AA00EBD1614B1121F01F0102EB8302AA
:100D8000411A13680120884003431360C7E719E044
:100D90000D99224600286FF00100009702DAAFF3A8
:100DA000008004E0AFF3008001E0AFF30080002892
:100DB0000ADA401C06D10C9820B14FF0FF300FB07A
:100DC000BDE8F08F5046FAE7E90701D10AF1010AC0
:100DD000064400200C9053E6CCCCCC0C007B00F0F9
:100DE0008000704700487047800300207546FFF779
:100DF000F9FFAE4605006946534620F007008546D8
:100E000018B020B5FFF72AFABDE820404FF00006E1
:100E10004FF000074FF000084FF0000B21F00701E2
:100E2000AC46ACE8C009ACE8C009ACE8C009ACE825
:100E3000C0098D467047000010B500F00FF8001D86
:100E400010BD00BFCD5B000010B50446AFF30080BD
:100E50002046BDE81040FFF7ECB90000004870479D
:100E6000A00300204FF0013C50F8042B51F8043B44
:100E70009A4221D1A2EB0C03934313EACC1317D16E
:100E800050F8042B51F8043B9A4215D1A2EB0C0305
:100E9000934313EACC130BD150F8042B51F8043BC5
:100EA0009A4209D1A2EB0C03934313EACC13DBD093
:100EB0004FF00000704700BFD01A01BAB1FA81F1BB
:100EC00001F0180122FA01F0CB40C1F12001DBB2A0
:100ED000C0B2C01A2CFA01F3D11A914311EAC3111E
:100EE000E6D1704700BFFEE770477CB50446062098
:100EF0008DF8000000208DF801008DF802008DF8BB
:100F000003008DF804008DF805008DF806008DF8BB
:100F1000070004F500700622694603F0B9FD054696
:100F200028467CBD1CB52B208DF8000040208DF894
:100F3000010060208DF8020000208DF803008DF87C
:100F400004008DF805008DF806008DF807000822D2
:100F5000694640F2056003F09BFD044620461CBD37
:100F60002DE9FC4105460027052640208DF80000AC
:100F700064208DF8010060208DF8020000208DF8BB
:100F800003008DF804008DF805008DF806008DF83B
:100F9000070005F5C0600822694603F079FD00BF2F
:100FA000012003F0FBFD05F5B060694603F04AFD42
:100FB00004465CB19DF80000432807D19DF801006C
:100FC000642803D19DF80200602802D0701E061E1E
:100FD000E6DC002E0FDD74B19DF8070000069DF8D9
:100FE000061040EA01409DF804109DF8052041EAF2
:100FF000022140EA01073846BDE8FC812DE9FC41A9
:1010000005460027052640208DF8000069208DF850
:10101000010060208DF8020000208DF803008DF89B
:1010200004008DF805008DF806008DF8070005F521
:10103000C0600822694603F02BFD00BF012003F0C9
:10104000ADFD05F5B060694603F0FCFC04465CB1FB
:101050009DF80000432807D19DF80100692803D1BD
:101060009DF80200602802D0701E061EE6DC002EED
:101070000FDD74B19DF8070000069DF8061040EAE8
:1010800001409DF804109DF8052041EA022140EA44
:1010900001073846BDE8FC81F0B587B00446012061
:1010A0000190002705268DF8144003208DF81500C7
:1010B00006208DF816008DF8170000208DF8180016
:1010C00002208DF81900062105A801F081FD0546D2
:1010D000E8B28DF81A0028128DF81B00082105A827
:1010E00004F088F900BF012003F058FD01A902A80F
:1010F00004F060F99DF8040058B19DF80800A04282
:1011000007D19DF80900032803D19DF80A0004289F
:1011100002D0701E061EE6DC002E14DD9DF80400D1
:1011200088B19DF80B0000069DF80C1040EA0140C4
:101130009DF80E109DF80D2041EA022140EA0107BA
:10114000384607B0F0BD02A0FFF79CF80020F8E792
:101150004E6F2072656365697665642064617461B1
:10116000206F7220756E65787065637465642064A5
:101170006174612072656365697665640A000000C8
:10118000F0B504460D461E4694F82070206883682A
:10119000A86800B900E000BF012F01D0022F7CD168
:1011A00003F0806030B903F0006018B903F080509C
:1011B000002873D0C3F30161022905D9606A40F4A5
:1011C000000060620120F0BD012088403060A86806
:1011D00060B9B5F800C0E86840EA4C5C206800F5EA
:1011E000C07000EB0110C0F800C00FE0D5E901C0ED
:1011F00040EACC00D5F80CC040EA0C00D4F800C09E
:101200000CF5C07C0CEB011CCCF80000D5F810C02C
:10121000206800F5C07000EB0110C0F804C0287D04
:1012200001280ED1206800F5C07000EB0110406865
:1012300040F4807C206800F5C07000EB0110C0F81D
:1012400004C0D079000692F806C040EA0C4092F83B
:1012500005C040EA0C2C10794CEA000C206800F51F
:10126000C07000EB0110C0F80CC0D078000692F8F6
:1012700002C040EA0C4092F801C040EA0C2092F80B
:1012800000C040EA0C00D4F800C00CF5C07C0CEBA8
:10129000011CCCF80800206801E016E00FE000F522
:1012A000C07000EB0110006840F0010C206800F5F0
:1012B000C07000EB0110C0F800C0002083E7606A36
:1012C00040F40010606201207DE7606A40F48020F5
:1012D0006062012077E7F0B504460A46216894F879
:1012E0002050012D01D0022D74D1D1F8000240F020
:1012F0000100C1F80002107D00F01F06012000FA75
:1013000006F3D1F81C029843C1F81C02D069C8B991
:10131000D1F80C029843C1F80C02908880B29689EB
:1013200040EA064601F51070576940F837601088AA
:1013300080B2168940EA064601F51070576900EB45
:10134000C7004660D069012819D1D1F80C021843B2
:10135000C1F80C02908880B2168840EA064601F572
:101360001070576940F83760908980B2168940EA5A
:10137000064601F51070576900EBC700466090699A
:1013800028B9D1F804029843C1F8040204E0D1F866
:1013900004021843C1F80402106928B9D1F81402F4
:1013A0009843C1F8140204E0D1F814021843C1F8BC
:1013B0001402106A012804D1D1F81C021843C1F8A4
:1013C0001C02D1F8000220F00100C1F80002002048
:1013D000F0BDFFE7606A40F4802060620120F7E71B
:1013E00010B50246002092F82030012B01D0022BCC
:1013F00009D121B91468E46804F0030003E014681B
:10140000246904F0030010BD70B5044694F8205020
:10141000012D01D0022D7DD151B92068C06800F0A6
:10142000030080B9606A40F400106062012070BD62
:101430002068006900F0030028B9606A40F40010D9
:1014400060620120F3E7206800F5D87000EB01101E
:10145000006800F004009060906840B9206800F5D2
:10146000D87000EB01100068400D106007E02068A4
:1014700000F5D87000EB01100068C00850602068CB
:1014800000F5D87000EB0110006800F00200D06099
:10149000206800F5D87000EB0110406800F00F00E4
:1014A0001061206800F5D87000EB0110406800F46E
:1014B0007F40000A9061206800F5D87000EB0110B1
:1014C0004068000C5061206800F5D87000EB0110F6
:1014D00080681870206800F5D87000EB01108068F3
:1014E00000F47F40000A5870206800F5D87000EBC7
:1014F0000110806800F47F00000C9870206800F5EF
:10150000D87000EB01108068000ED870206800F5DC
:10151000D87000E02FE000EB0110C068187120685F
:1015200000F5D87000EB0110C06800F47F40000A9D
:101530005871206800F5D87000EB0110C06800F405
:101540007F00000C9871206800F5D87000EB011046
:10155000C068000ED87131B92068C06840F0200022
:101560002668F06005E02068006940F020002668E9
:10157000306100205BE7606A40F4802060620120F7
:1015800055E70146002091F82020012A01D0022AC7
:1015900011D10B689B6803F0806303B1401C0B689A
:1015A0009B6803F0006303B1401C0B689B6803F069
:1015B000805303B1401C704770B504460CB901203C
:1015C00070BD94F8200010B9204600F0AFF82068F4
:1015D000006820F002002168086000F0ADFB0546BD
:1015E0000DE000F0A9FB401B0A2808D9606A40F40E
:1015F00000306062052084F820000120E0E72068C8
:10160000406800F002000028EBD12068006840F03C
:1016100001002168086000F08FFB05460DE000F036
:101620008BFB401B0A2808D9606A40F400306062D6
:10163000052084F820000120C2E72068406800F0FF
:1016400001000028EBD0207E012806D12068006828
:1016500040F080002168086005E02068006820F004
:10166000800021680860607E012806D1206800683B
:1016700040F040002168086005E02068006820F024
:10168000400021680860A07E012806D1206800681B
:1016900040F020002168086005E02068006820F024
:1016A000200021680860E07E012806D120680068DB
:1016B00020F010002168086005E02068006840F014
:1016C000100021680860207F012806D1206800688A
:1016D00040F008002168086005E02068006820F0FC
:1016E000080021680860607F012806D12068006832
:1016F00040F004002168086005E02068006820F0E0
:10170000040021680860D4E9020108432169084304
:10171000616908436168491E08432168C861002067
:101720006062012084F82000002049E710B586B0EF
:10173000044624492068884241D100BF00BF2248A6
:10174000806940F00400204988610846806900F003
:101750000400019000BF00BF00BF00BF00BF0846EB
:10176000806940F0040088610846806900F0040048
:10177000019000BF00BF00BF00BF0846C06940F035
:101780000070C8610846C06900F00070019000BF99
:1017900000BF8814029002200390012004900320CF
:1017A000059002A9094800F017F94FF40060029073
:1017B0000020039002A9054800F00EF900BF06B012
:1017C00010BD00000064004000100240000801400D
:1017D00070B5044694F82000012822D1022084F834
:1017E00020002068006820F001002168086000F0F7
:1017F000A3FA05460DE000F09FFA401B0A2808D91D
:10180000606A40F400306062052084F82000012006
:1018100070BD2068406800F001000028EBD16062D4
:10182000F6E7606A40F4002060620120F0E7000003
:1018300070B50446002594F82100022803D0042046
:10184000A0630125C1E02068006820F00E00216837
:1018500008602068006820F00100216808605C4989
:101860002068884252D95A4978392068884201D183
:10187000012047E0564964392068884201D1102090
:1018800040E0534950392068884201D1801539E041
:101890004F493C392068884201D1801432E04C49DC
:1018A00028392068884202D14FF480302AE0484924
:1018B00014392068884202D14FF4801022E0444954
:1018C0002068884201D140041CE0424920688842D7
:1018D00001D1012016E03F4914312068884201D12E
:1018E00010200FE03B4928312068884201D1801543
:1018F00008E038493C312068884201D1801401E079
:101900004FF480303349091F086051E0304978397D
:101910002068884201D1012047E02D4964392068C0
:10192000884201D1102040E029495039206888427E
:1019300001D1801539E026493C392068884201D11F
:10194000801432E0224928392068884202D14FF4BD
:1019500080302AE01E4914392068884202D14FF4B1
:10196000801022E01A492068884201D140041CE01E
:1019700018492068884201D1012016E01549143128
:101980002068884201D110200FE0124928312068D8
:10199000884201D1801508E00E493C312068884218
:1019A00001D1801401E04FF480300949803948604A
:1019B000012084F8210000BF002084F8200000BF2F
:1019C000606B10B12046616B8847284670BD0000EF
:1019D00080000240080402402DE9F8470246002337
:1019E0009C467BE14FF0010808FA03F4D1F800802F
:1019F00008EA0400A0427DD1DFF8F4A2D1F8048007
:101A0000A8EB0A09D0453AD014DCB8F1030F50D046
:101A100009DCB8F1000F31D0B8F1010F1CD0B8F1DA
:101A2000020F49D120E0B8F1110F18D0B8F1120F10
:101A300042D11EE0B9F5881F25D006DCB9F5803FFC
:101A400020D0B9F5801F37D11AE0B9F5001F18D0A2
:101A5000B9F5041F30D117E0D1F80CC02DE0D1F852
:101A60000C8008F1040C28E0D1F80C8008F1080C77
:101A700023E0D1F80C8008F10C0C1EE000BF00BF81
:101A800000BF00BF00BF00BFD1F80880B8F1000F51
:101A900002D14FF0040C0BE0D1F80880B8F1010F2F
:101AA00003D14FF0080C146102E04FF0080C5461B0
:101AB00003E04FF0000C00E000BF00BFFF2801D89A
:101AC000904601E002F104084646FF2802D84FEA9A
:101AD000830803E0A3F108084FEA88084746D6F8D0
:101AE00000804FF00F0909FA07F928EA09080CFAF3
:101AF00007F900E07AE048EA0908C6F80080D1F862
:101B0000048008F08058B8F1805F6FD100BFDFF823
:101B1000E481D8F8188048F00108DFF8D891C9F8B6
:101B20001880C846D8F8188008F00108CDF8008061
:101B300000BF00BF4FEAB9384FEA930958F829505F
:101B40004FEA83784FEA18794FF00F0808FA09F83E
:101B500025EA0805DFF8A081424502D14FF00008D0
:101B600024E0DFF89881424502D14FF001081DE0E2
:101B7000DFF88C81424502D14FF0020816E0DFF811
:101B80008481424502D14FF003080FE0DFF87881ED
:101B9000424502D14FF0040808E0DFF87081424569
:101BA00002D14FF0050801E04FF006084FEA8379B3
:101BB0004FEA197908FA09F848EA0505DFF8508173
:101BC0004FEA930948F82950D1F8048008F4803886
:101BD000B8F5803F0BD1DFF83C81D8F8008048EAA7
:101BE0000008DFF83091C9F800800AE075E0DFF8FE
:101BF0002481D8F8008028EA0008DFF81891C9F895
:101C00000080D1F8048008F40038B8F5003F0ED108
:101C1000DFF8008108F10408D8F8008048EA0008DD
:101C2000DFF8F09009F10409C9F800800DE0DFF851
:101C3000E48008F10408D8F8008028EA0008DFF8FA
:101C4000D49009F10409C9F80080D1F8048008F49F
:101C50008018B8F5801F0ED1DFF8B88008F10808A9
:101C6000D8F8008048EA0008DFF8A89009F10809D0
:101C7000C9F800800DE0DFF89C8008F10808D8F86A
:101C8000008028EA0008DFF88C9009F10809C9F8FB
:101C90000080D1F8048008F40018B8F5001F0ED1B8
:101CA000DFF8708008F10C08D8F8008048EA0008D6
:101CB000DFF8609009F10C09C9F800800DE0DFF849
:101CC000548008F10C08D8F8008028EA0008DFF8F2
:101CD000449009F10C09C9F800805B1CD1F8008020
:101CE00028FA03F8B8F1000F7FF47CAEBDE8F8875E
:101CF000000011100010024000080140000C0140DB
:101D0000001001400014014000180140001C014077
:101D1000080001400004014010B5C26821EA020336
:101D200002EA010443EA0443036110BD0AB1016100
:101D300001E00B0403617047014800687047000030
:101D40001000002010B50848006840F01000064957
:101D50000860052000F080F80F2000F007F800F080
:101D60002BF8002010BD00000020024070B5044692
:101D70000E4800784FF47A71B1FBF0F00C49096815
:101D8000B1FBF0F5284600F0F7FB08B1012070BD6B
:101D9000102C07D200222146501E00F01EF80548E4
:101DA000046001E00120F2E70020F0E718000020C5
:101DB000000000201400002070470146084600285B
:101DC00009DB00F01F0301229A4043099B0003F145
:101DD000E023C3F8002100BF70472DE9F05F804683
:101DE0000D461646002702F069F9074639462A468D
:101DF000334601F00700C0F1070ABAF1040F02D917
:101E00004FF0040A01E0C0F1070AD14600F1040ACC
:101E1000BAF1070F02D24FF0000A01E0A0F1030A65
:101E2000D4464FF0010A0AFA09FAAAF1010A0AEAAD
:101E3000020A0AFA0CFA4FF0010B0BFA0CFBABF199
:101E4000010B0BEA030B4AEA0B042146404602F061
:101E50003DF9BDE8F09F000000BF00F00702064B0F
:101E600019684FF6FF031940044B0B4343EA022164
:101E7000014B196000BF70470CED00E00000FA054F
:101E800070B504460D460CB9012070BD5A48006873
:101E900000F00700A8420ED25748006820F0070063
:101EA0002843554908600846006800F00700A8422A
:101EB00001D00120E9E7207800F0020002281DD1BE
:101EC000207800F00400042805D14C48406840F414
:101ED000E0604A494860207800F00800082805D1F1
:101EE0004648406840F46050444948604348406870
:101EF00020F0F000A168084340494860207800F0D5
:101F0000010078B36068012806D13C48006800F4FD
:101F1000003090B90120B8E76068022806D1374840
:101F2000006800F0007040B90120AEE73348006857
:101F300000F0020008B90120A7E73048406820F00F
:101F40000300616808432D494860FFF7F5FE064627
:101F500009E0FFF7F1FE801B41F28831884202D987
:101F6000032092E707E02548406800F00C00616814
:101F7000B0EB810FEDD12048006800F00700A842C7
:101F80000ED91D48006820F0070028431A49086050
:101F90000846006800F00700A84201D0012074E75D
:101FA000207800F00400042807D11448406820F489
:101FB000E060E168084311494860207800F00800BB
:101FC000082808D10D48406820F46050216940EA93
:101FD000C1000A49486000F03FF808494968C1F368
:101FE0000311074A515CC84006490860064800686A
:101FF000FFF7BCFE002048E700200240001002402E
:10200000C278000800000020140000200148006889
:10201000704700000000002000B5FFF7F7FF0449FB
:102020004968C1F30221034A515CC84000BD000069
:1020300000100240D278000800B5FFF7E7FF04491E
:102040004968C1F3C221034A515CC84000BD000089
:1020500000100240D2780008F0B585B00FF26C0C89
:102060009CE8E01001A8A0E8E0101CA52D680095F0
:1020700000210022002300240020194D696801F08E
:102080000C05F5B1042D02D0082D19D101E0154839
:1020900019E001ADC1F38346AC5D01F4803555B163
:1020A0000F4D6D68C5F340451DF805200D4D654386
:1020B000B5FBF2F302E00C4D04FB05F3184602E019
:1020C00000BF084800BF00BF05B0F0BD0203040513
:1020D000060708090A0B0C0D0E0F10100102000074
:1020E0000010024000127A0000093D00F8B50446D5
:1020F0000CB90120F8BD207800F00100002878D04C
:10210000F848406800F00C0004280CD0F5484068FE
:1021100000F00C00082811D1F248406800F480302B
:10212000B0F5803F0AD1EF48006800F40030002885
:102130005FD0606800285CD10120DBE700BF6068E9
:10214000B0F5803F06D1E748006840F48030E549AB
:10215000086028E0606858B9E248006820F48030E0
:10216000E04908600846006820F4802008601AE012
:102170006068B0F5A02F0BD1DA48006840F48020E9
:10218000D84908600846006840F4803008600AE0DA
:10219000D448006820F48030D249086008460068BE
:1021A00020F48020086000BF606888B1FFF7C4FD9C
:1021B000054606E0FFF7C0FD401B642801D9032057
:1021C00098E7C848006800F400300028F2D010E01A
:1021D000FFF7B2FD054606E0FFF7AEFD401B6428A1
:1021E00001D9032086E7BF48006800F400300028CA
:1021F000F2D1207800F00200022857D1B948406897
:1022000000F00C0050B1B748406800F00C000828FE
:1022100018D1B448406800F4803098B9B1480068DB
:1022200000F0020020B12069012801D0012061E7FF
:10223000AC48006820F0F800616940EAC100A94993
:10224000086033E02069E8B10120A7490860FFF782
:1022500073FD054606E0FFF76FFD401B022801D91C
:10226000032047E79F48006800F002000028F2D0F2
:102270009C48006820F0F800616940EAC100994973
:10228000086013E0002098490860FFF755FD0546F7
:1022900006E0FFF751FD401B022801D9032029E782
:1022A0009048006800F002000028F2D1207800F089
:1022B000080008282DD1A069B8B101208B49086019
:1022C000FFF73AFD054606E0FFF736FD401B022802
:1022D00001D903200EE78348406A00F0020000287D
:1022E000F2D0012001F058FC13E000207F49086083
:1022F000FFF722FD054606E0FFF71EFD401B022802
:1023000001D90320F6E67748406A00F00200002871
:10231000F2D1207800F00400042873D1002771481E
:10232000C06900F0805070B900BF6E48C06940F0CD
:1023300080506C49C8610846C06900F08050009028
:1023400000BF00BF01276A48006800F48070B0B980
:102350006748006840F4807065490860FFF7ECFC4E
:10236000054606E0FFF7E8FC401B642801D903207E
:10237000C0E65F48006800F480700028F2D000BF1B
:10238000E068012806D15748006A40F0010055492D
:10239000086227E0E06858B95248006A20F001005E
:1023A000504908620846006A20F00400086219E0FB
:1023B000E06805280BD14B48006A40F00400494909
:1023C00008620846006A40F0010008620AE04548D9
:1023D000006A20F00100434908620846006A20F0C4
:1023E0000400086200BFE068A0B1FFF7A5FC054645
:1023F00009E0FFF7A1FC401B41F28831884202D975
:10240000032077E622E03748006A00F00200002847
:10241000EFD012E0FFF790FC054608E0FFF78CFCD8
:10242000401B41F28831884201D9032062E62D48E1
:10243000006A00F002000028F0D1012F05D12948E0
:10244000C06920F080502749C86100BFE069C8B367
:102450002448406800F00C00082860D0E069022899
:1024600048D1002020490866FFF766FC054606E0D3
:10247000FFF762FC401B022801D903203AE6194805
:10248000006800F000700028F2D1206AB0F5803FAB
:1024900007D11448406820F40030A168084311496E
:1024A0004860D4E9080108430E49496821F47411D1
:1024B00008430C49486001200B490866FFF73CFCC3
:1024C000054607E03DE0FFF737FC401B022801D935
:1024D00003200FE60348006800F000700028F2D0E7
:1024E0002FE00000001002400000424280044242FF
:1024F00000700040002014490866FFF71DFC0546E7
:1025000006E0FFF719FC401B022801D90320F1E582
:102510000E48006800F000700028F2D111E0E06978
:10252000012800D1E6E50948466806F48031206AB2
:10253000814204D106F47011606A814201D0012009
:10254000D8E50020D6E5000000004242001002401D
:10255000042808D14FF0E021096941F004014FF04F
:10256000E022116107E04FF0E021096921F0040148
:102570004FF0E0221161704770B504462546681E91
:10258000B0F1807F01D301200FE0681E4FF0E02101
:1025900048610F214FF0FF3001F098FD00204FF00F
:1025A000E021886107200861002070BD10B5044655
:1025B0000CB9012010BD94F83D0028B9002084F822
:1025C0003C00204600F025F8022084F83D00211D43
:1025D000206801F07BFB012084F8460000BF84F8EE
:1025E0003E0001213F200155402001554120015569
:1025F00000BF00BF012084F8420043200155442061
:1026000001554520015500BF012084F83D00002000
:10261000D0E77047014691F83D00012801D0012024
:102620007047022081F83D000868C06840F0010052
:102630000B68D860164B0868984213D0154B086891
:1026400098420FD00868B0F1804F0BD0124B086849
:10265000984207D0114B0868984203D0104B086885
:1026600098420CD10868806800F00702062A0CD056
:102670000868006840F001000B68186005E0086811
:10268000006840F001000B6818600020C8E70000F7
:10269000002C0140003401400004004000080040CC
:1026A000000C0040704700002DE9F0470446206808
:1026B00005682068C668206847694FF00008C14671
:1026C00005F00F08B8F1000F0AD105F0200038B16D
:1026D00006F0200020B1204601F070FBBDE8F08735
:1026E000B8F1000F71D007F0010018B906F490702E
:1026F00000286AD005F0010030B106F4807018B1EE
:10270000E06B40F00100E06305F0040030B107F039
:10271000010018B1E06B40F00200E06305F0020038
:1027200030B107F0010018B1E06B40F00400E06345
:1027300005F0080048B106F0200010B907F00100CC
:1027400018B1E06B40F00800E063E06B68B305F09F
:10275000200028B106F0200010B1204601F02EFB29
:1027600020684069C0F38019E06B00F0080010B9E0
:10277000B9F1000F22D0204601F000FB206840692B
:1027800000F04000B0B12068406920F040002168AE
:102790004861606B50B11848616B4863606BFFF72C
:1027A00047F810B1606B416B88470CE02046FFF79B
:1027B00079FF08E02046FFF775FF04E02046FFF7A9
:1027C00071FF0020E06389E7FFE705F0800030B18A
:1027D00006F0800018B1204601F0BEFB7EE705F050
:1027E000400030B106F0400018B1204601F0D6FAA2
:1027F00074E700BF72E70000693D000810B50446A9
:102800000CB9012010BDA06900B100E000BF94F830
:10281000390028B9002084F83800204600F028F854
:10282000242084F839002068C06820F40050216812
:10283000C860204601F012FB2068006920F4904037
:10284000216808612068406920F02A0021684861F9
:102850002068C06840F400502168C8600020E06330
:10286000202084F8390084F83A000020CAE70000EC
:1028700010B586B004462849206888424AD100BF76
:1028800000BF2648806940F004002449886108465A
:10289000806900F00400019000BF00BF00BF00BFCE
:1028A00000BF0846806940F00400886108468069DE
:1028B00000F00400019000BF00BF00BF00BF00BFD8
:1028C0000846806940F4804088610846806900F4C9
:1028D0008040019000BF00BF00BF48150290022059
:1028E0000390012004900320059002A90C48FFF7F3
:1028F00073F84FF4806002900020039002A908480A
:10290000FFF76AF82520FFF758FA03221146252021
:10291000FFF763FA06B010BD003801400010024016
:10292000000801402DE9F84F04460E461746994627
:102930004FF0000A94F83A0020285DD106B117B98B
:102940000120BDE8F88F00BF94F83800012801D1BC
:102950000220F6E7012084F8380000BF0020E06381
:10296000222084F83A00FFF7E7F98246A785E78539
:10297000A068B0F5805F04D1206910B90025B04689
:1029800002E035464FF0000800BF002084F8380010
:1029900000BF29E05346002220212046CDF80090B8
:1029A00001F00AFB08B10320CBE745B92068406875
:1029B000C0F30800A8F8000008F1020811E0A068C0
:1029C000B0F5805F03D0A06828B9206918B92068E5
:1029D0004068287004E02068406800F07F0028709C
:1029E0006D1CE08D401EE085E08D0028D2D12020B6
:1029F00084F83A000020A4E70220A2E710B50346BD
:102A000093F83A0020282FD101B10AB9012010BD56
:102A100000BF93F83800012801D10220F7E7012018
:102A200083F8380000BF99629A85DA850020D86360
:102A3000222083F83A0000BF002083F8380000BF4E
:102A40001868C06840F480701C68E06018684069CD
:102A500040F001001C6860611868C06840F0200008
:102A60001C68E0600020D2E70220D0E71D4A016820
:102A7000914236D11C49098801F4004189BB1A49A9
:102A8000098801F4804171B1184909780A2903D0F5
:102A90000021154A118024E01349098841F40041BE
:102AA000114A11801DE0114909780D2906D10E49FE
:102AB000098841F480410C4A118012E00B490978E1
:102AC000094A1288C2F30D02094B99540649098834
:102AD000491C054A118011460988C72901DD0021DA
:102AE00011807047003801400C0000200E000020CB
:102AF000540100202DE9F84F04460E46174699462A
:102B00004FF0000A94F8390020285AD106B117B9BD
:102B10000120BDE8F88F00BF94F83800012801D1EA
:102B20000220F6E7012084F8380000BF0020E063AF
:102B3000212084F83900FFF7FFF88246A784E78454
:102B4000A068B0F5805F04D1206910B90025B046B7
:102B500002E035464FF0000800BF002084F838003E
:102B600000BF1BE05346002280212046CDF8009094
:102B700001F022FA08B10320CBE745B9B8F800000C
:102B8000C0F308002168486008F1020803E02878D3
:102B9000216848606D1CE08C401EE084E08C0028B9
:102BA000E0D15346002240212046CDF8009001F0AC
:102BB00003FA08B10320ACE7202084F83900002094
:102BC000A7E70220A5E7704700BFFEE700BFFEE7CA
:102BD00070B502460C46FF25FF2309E012F8010BF1
:102BE00080EA03010648405C80EA05030548455C2D
:102BF000201EA4F10106B4B2F0D143EA052070BD55
:102C0000E4780008E47900082DE9FC4704460D4605
:102C100017469846DDE90A690A2001F0BFFF022045
:102C20008DF800008DF8014000208DF802008DF82D
:102C300003008DF804008DF805008DF806008DF86E
:102C400007000222694601F023FF82465146F9A09F
:102C5000FDF718FB82208DF800008DF80140002060
:102C60008DF802008DF803008DF804008DF8050042
:102C70008DF806008DF807000222694601F008FF72
:102C800082465146F4A0FDF7FDFA2F208DF8000092
:102C900060208DF801008DF8020000208DF80300FF
:102CA0008DF804508DF805008DF806008DF80700AA
:102CB00004F5C0600822694601F0EAFE82465146EA
:102CC000EEA0FDF7DFFA40208DF8000061208DF8BE
:102CD000010060208DF8020000208DF803008DF8BF
:102CE00004008DF805008DF806008DF8070004F546
:102CF000C0600822694601F0CBFE82465146E8A03A
:102D0000FDF7C0FA042D01D10A2D6ED0082D01D097
:102D1000012D22D123208DF8000081208DF80100A3
:102D200060208DF8020000208DF80300F0B28DF8CD
:102D30000400300A8DF80500300C8DF80600300EC6
:102D40008DF8070004F5C0600822694601F0A0FE76
:102D500082465146DCA0FDF795FA23208DF800004D
:102D600083208DF8010060208DF8020000208DF88E
:102D70000300F8B28DF80400380A8DF80500002031
:102D80008DF806008DF8070004F5C060082269463A
:102D900001F07EFE82465146D4A0FDF773FA23204F
:102DA0008DF8000084208DF8010060208DF802006D
:102DB00000208DF8030008F0FF008DF804004FEAB2
:102DC00018208DF8050000208DF806008DF807000A
:102DD00004F5C0600822694601F05AFE8246514659
:102DE00000E002E0CCA0FDF74DFA23208DF80000B2
:102DF00005208DF8010010208DF8020000208DF8CC
:102E0000030080208DF8040000208DF805008DF867
:102E100006008DF8070004F5C0600822694601F03D
:102E200037FE82465146C7A0FDF72CFA23208DF8C5
:102E3000000006208DF8010010208DF8020000200F
:102E40008DF8030009F0FF008DF804004FEA192007
:102E50008DF8050000208DF806008DF8070004F5B8
:102E6000C0600822694601F013FE82465146BEA0AA
:102E7000FDF708FA23208DF8000000208DF80100EE
:102E800018208DF8020001208DF8030004F1800065
:102E9000C0B28DF8040001208DF8050000208DF8E7
:102EA000060080208DF8070004F5C06008226946FE
:102EB00001F0EEFD82465146B7A0FDF7E3F92F2061
:102EC0008DF8000000208DF8010018208DF8020018
:102ED00002208DF8030001208DF8040000208DF8F9
:102EE00005008DF806008DF8070004F5C060082283
:102EF000694601F0CDFD82465146AFA0FDF7C2F90B
:102F00002F208DF8000000208DF801001A208DF888
:102F1000020000208DF803008DF804008DF80500F4
:102F20008DF806008DF8070004F5C0600822694698
:102F300001F0AEFD82465146ABA0FDF7A3F9232078
:102F40008DF8000000208DF801001A208DF8020095
:102F500001208DF8030010208DF8040000208DF86A
:102F6000050041208DF8060060208DF8070004F56B
:102F7000C0600822694601F08BFD82465146A5A03B
:102F8000FDF780F90B2D51D2DFE805F05006502BEC
:102F900052505050072C510000BF23208DF80000E4
:102FA00000208DF801001A208DF8020002208DF813
:102FB000030020208DF8040000208DF80500642017
:102FC0008DF8060060208DF8070004F5C060082227
:102FD000694601F05DFD8246514696A0FDF752F923
:102FE00083E100BF23208DF8000000208DF8010050
:102FF0001A208DF8020002208DF8030020208DF8A1
:10300000040000208DF805006C208DF8060060207B
:103010008DF8070004F5C0600822694601F038FD0C
:103020008246514683A0FDF72DF95EE15CE112E195
:1030300010E100005468652073746F702072656D34
:103040006F7465206E6F646520726573756C743A79
:103050002025640A000000005468652052657365ED
:103060007420636F6D6D756E69636174696F6E2036
:10307000726573756C743A2025640A005468652083
:10308000536574206F7065726174696E67204D6F4F
:10309000646520726573756C743A2025640A0000BB
:1030A00054686520436865636B206F706572617456
:1030B000696E67206D6F646520726573756C743A14
:1030C0002025640A000000005468652053657420C0
:1030D000696E697469616C207370656564207265DE
:1030E00073756C743A2025640A00000054686520EA
:1030F00053657420696E697469616C2061636365EE
:103100006C65726174696F6E20726573756C743A68
:103110002025640A0000000054686520536574206F
:10312000696E697469616C20646563656C65726160
:1031300074696F6E20726573756C743A2025640A29
:10314000000000005468652044697361626C65206A
:10315000636F622D69642073796E63207265737585
:103160006C743A2025640A00546865205365742005
:10317000636F6D6D756E69636174696F6E206379DD
:10318000636C6520706572696F6420726573756C1D
:10319000743A2025640A000054686520446973610C
:1031A000626C65205450444F20726573756C743A9C
:1031B0002025640A000000005468652044656669A3
:1031C0006E657320746865207472616E736D6973C7
:1031D00073696F6E207479706520726573756C7495
:1031E0003A2025640A000000546865204465666939
:1031F0006E657320746865206E756D626572206FF0
:10320000662076616C696420726573756C743A200F
:1032100025640A005468652031413030682D303112
:1032200068206D617020726573756C743A20256436
:103230000A0000005468652031413030682D30327A
:1032400068206D61707320726573756C743A202507
:10325000640A000000BF23208DF8000000208DF8D4
:1032600001001A208DF8020002208DF803001020C2
:103270008DF8040000208DF8050077208DF80600F9
:1032800060208DF8070004F5C0600822694601F04F
:10329000FFFB82465146AFF26400FCF7F3FF2320A8
:1032A0008DF8000000208DF801001A208DF8020032
:1032B00003208DF8030010208DF8040000208DF805
:1032C000050078208DF8060060208DF8070004F5D1
:1032D000C0600822694601F0DBFB82465146AFF22E
:1032E000AC00FCF7CFFF00E000BF00BF2F208DF83F
:1032F000000000208DF801001A208DF80200002047
:103300008DF80300042D01D00A2D03D103208DF880
:10331000040002E002208DF8040000208DF8050072
:103320008DF806008DF8070004F5C0600822694694
:1033300001F0AEFB82465146FEA0FCF7A3FF23201E
:103340008DF8000000208DF8010018208DF8020093
:1033500001208DF8030004F18000C0B28DF8040054
:1033600001208DF8050000208DF806008DF807007B
:1033700004F5C0600822694601F08AFB8246514686
:10338000F7A0FCF77FFF23208DF8000000208DF8C8
:10339000010014208DF8020001208DF803008DF843
:1033A000044002208DF8050000208DF806008020E2
:1033B0008DF8070004F5C0600822694601F068FB3B
:1033C00082465146EDA0FCF75DFF2F208DF80000EE
:1033D00000208DF8010014208DF8020002208DF8E5
:1033E000030001208DF8040000208DF805008DF801
:1033F00006008DF8070004F5C0600822694601F058
:1034000047FB82465146AFF25020FCF73BFF2F208E
:103410008DF8000000208DF8010016208DF80200C4
:1034200000208DF803008DF804008DF805008DF85C
:1034300006008DF8070004F5C0600822694601F017
:1034400027FB82465146D5A0FCF71CFF23208DF8B0
:10345000000000208DF8010016208DF802000120E8
:103460008DF8030010208DF8040000208DF8050071
:1034700040208DF8060060208DF8070004F5C0603C
:103480000822694601F004FB82465146D0A0FCF7B1
:10349000F9FE0B2D55D2DFE805F0540654203A54BE
:1034A000545407213B0000BF23208DF8000000206A
:1034B0008DF8010016208DF8020002208DF803001F
:1034C00020208DF8040000208DF805007A208DF86A
:1034D000060060208DF8070034E000BF23208DF83F
:1034E000000000208DF8010016208DF80200022057
:1034F0008DF8030020208DF8040000208DF80500D1
:10350000FF208DF8060060208DF807001AE000BF4C
:1035100023208DF8000000208DF8010016208DF882
:10352000020002208DF8030010208DF80400002016
:103530008DF8050071208DF8060060208DF80700D9
:1035400000E000BF00BF04F5C0600822694601F03A
:103550009FFA82465146A6A0FCF794FE2F208DF8D4
:10356000000000208DF8010016208DF802000020D8
:103570008DF8030002208DF8040000208DF805006E
:103580008DF806008DF8070004F5C0600822694632
:1035900001F07EFA824651469DA0FCF773FE23207F
:1035A0008DF8000000208DF8010014208DF8020035
:1035B00001208DF803008DF8044002208DF80500ED
:1035C00000208DF806008DF8070004F5C060082281
:1035D000694601F05DFA8246514695A0FCF752FE1D
:1035E00001208DF800008DF8014000208DF80200C8
:1035F0008DF803008DF804008DF805008DF80600A5
:103600008DF807000222694601F042FA82465146CF
:103610008FA0FCF737FE00208DF800008DF8010028
:103620008DF802008DF803008DF804008DF8050078
:103630008DF806008DF8070004F5E0600822694661
:1036400001F026FA82469DF800108AA0FCF71AFEC7
:1036500000208DF800008DF801008DF802008DF833
:1036600003008DF804008DF805008DF806008DF834
:10367000070008226946802001F00AFA8246514676
:1036800082A0FCF7FFFD80208DF8000000208DF85F
:1036900001008DF802008DF803008DF804008DF80C
:1036A00005008DF806008DF8070004F5007008226B
:1036B000694601F0EDF9824651467CA0FCF7E2FD37
:1036C00006208DF8000000208DF801008DF8020022
:1036D0008DF803008DF804008DF805008DF80600C4
:1036E0008DF8070004F500700822694601F0D0F952
:1036F00082465146AFF26050FCF7C4FD07208DF8BA
:10370000000000208DF801008DF802008DF8030004
:103710008DF804008DF805008DF806008DF807007F
:1037200004F500700822694601F0B2F9824651465C
:103730005EA0C3E054686520746865206E756D6294
:103740006572206F662076616C696420656E7472A4
:1037500069657320726573756C743A2025640A007C
:1037600054686520456E61626C65205450444F205A
:10377000726573756C743A2025640A00546865207C
:1037800044697361626C65205250444F20726573C6
:10379000756C743A2025640A0000000054686520A6
:1037A000446566696E657320746865206E756D6228
:1037B0006572206F662076616C696420656E747234
:1037C00069657320726573756C743A2025640A000C
:1037D00054686520636F6E74726F6C20776F7264CB
:1037E00020726573756C743A2025640A000000002D
:1037F0005468652031363030682D303268206D6174
:10380000707320726573756C743A2025640A000029
:10381000546865206D617070696E67207265636FB2
:10382000726420726573756C743A2025640A000016
:1038300054686520456E7361626C65205250444F38
:1038400020726573756C743A2025640A00000000CC
:103850005468652053746172742072656D6F74656D
:10386000206E6F646520726573756C743A202564F0
:103870000A000000546865204865617274626561E1
:10388000742069733A2025640A000000546865209A
:1038900053796E6320636F6D6D616E642072657322
:1038A000756C743A2025640A000000005468652095
:1038B000726573756C743A2025640A00FCF7E2FCAB
:1038C0000F208DF8000000208DF801008DF8020017
:1038D0008DF803008DF804008DF805008DF80600C2
:1038E0008DF8070004F500700822694601F0D0F851
:1038F0008246514602A0FCF7C5FC5046BDE8FC8755
:1039000054686520456E61626C6520726573756CE4
:10391000743A2025640A00002DE9FC4106460C4655
:1039200015462F208DF8000060208DF801008DF8DD
:10393000020000208DF803008DF804608DF805006A
:103940008DF806008DF807000822694640F20560F0
:1039500001F09EF80746394645A0FCF793FC2B2062
:103960008DF8000083208DF8010060208DF80200A2
:1039700000208DF80300E0B28DF80400200A8DF8D5
:10398000050000208DF806008DF807000822694622
:1039900040F2056001F07CF8074639463DA0FCF78F
:1039A00071FC2B208DF8000084208DF80100602030
:1039B0008DF8020000208DF80300E8B28DF80400B5
:1039C000280A8DF8050000208DF806008DF8070004
:1039D0000822694640F2056001F05AF80746394668
:1039E00037A0FCF74FFC2B208DF8000040208DF80D
:1039F000010060208DF8020000208DF803000620F1
:103A00008DF8040000208DF805008DF806008DF873
:103A100007000822694640F2056001F039F80746C0
:103A2000394632A0FCF72EFC2B208DF800004020F8
:103A30008DF8010060208DF8020000208DF8030051
:103A40000F208DF8040000208DF805008DF8060089
:103A50008DF807000822694640F2056001F018F869
:103A60000746394621A0FCF70DFC0020BDE8FC818B
:103A700054686520536574206F7065726174696E57
:103A800067204D6F646520726573756C743A2025EC
:103A9000640A00005468652053657420696E697477
:103AA00069616C20616363656C65726174696F6ED6
:103AB00020726573756C743A2025640A000000005A
:103AC0005468652053657420696E697469616C205F
:103AD000646563656C65726174696F6E207265738D
:103AE000756C743A2025640A000000005468652053
:103AF000456E61626C6520726573756C743A202541
:103B0000640A000070470021C0F8E810C0F8E41013
:103B100070477CB5044623208DF80000FF208DF807
:103B2000010060208DF8020000208DF80300E0B253
:103B30008DF80400200A8DF80500200C8DF8060091
:103B4000200E8DF807000822694640F2056000F05B
:103B50009FFF0546052001F021F82B208DF800007D
:103B600040208DF8010060208DF8020000208DF8C3
:103B700003000F208DF8040000208DF805008DF85B
:103B800006008DF807000822694640F2056000F043
:103B90007FFF054628467CBD08B508490968C90865
:103BA0004FF47A72B1FBF2F14143009100BF00BFC4
:103BB00000994A1E00920029F9D108BD000000209A
:103BC00070477CB505460C462F208DF8000000207C
:103BD0008DF80100E0B28DF80200200A8DF8030094
:103BE000200C8DF80400200E8DF8050000208DF8C3
:103BF00006008DF8070005F500700622694600F002
:103C000047FF064630467CBD7CB504462F208DF824
:103C1000000000208DF801008DF802008DF80300EF
:103C20008DF804008DF805008DF806008DF807006A
:103C300004F500700622694600F02AFF0546284672
:103C40007CBD1CB52B208DF8000040208DF80100B4
:103C500060208DF8020000208DF803000F208DF801
:103C6000040001208DF8050000208DF806008DF875
:103C700007000822694640F2056000F009FF04468B
:103C800020461CBD7047000010B50E480068C06893
:103C900000F0010078B10C4908698047002009490B
:103CA0000968486200BF642006490968C862642147
:103CB0000448C16000BF6FF0010002490968086153
:103CC00010BD0000380300206000002010B502681D
:103CD000204B98420ED0204B98420BD0B0F1804F31
:103CE00008D01E4B984205D01D4B984202D01D4B68
:103CF000984203D122F070024B681A43154B984248
:103D00000ED0154B98420BD0B0F1804F08D0134B1A
:103D1000984205D0124B984202D0124B984203D1E0
:103D200022F44072CB681A4322F080034C6943EAC4
:103D3000040202608B68C3620B688362054B984281
:103D400002D0054B984201D10B6903630123436103
:103D500010BD0000002C0140003401400004004070
:103D600000080040000C004070B505466C6A002059
:103D7000E085E0842046FEF795FC70BD0168C968C7
:103D800021F490710268D1600168496921F0010154
:103D900002685161202180F83A10704710B504463E
:103DA0002068C06820F040002168C860202084F8A6
:103DB00039002046FEF707FF002010BD70B504460D
:103DC00094F83A00222847D1A068B0F5805F0CD162
:103DD000206950B90025A66A20684068C0F3080031
:103DE0003080A06A801CA06215E0A56A0026A06849
:103DF000B0F5805F03D0A06828B9206918B92068A1
:103E00004068287004E02068406800F07F00287057
:103E1000A06A401CA062E08D401E80B2E085C8B957
:103E20002068C06820F020002168C8602068C06851
:103E300020F480702168C8602068406920F001008B
:103E400021684861202084F83A002046FEF70EFEE3
:103E5000002070BD0020FCE70220FAE770B50446A0
:103E60002168096921F44051E26811432268116117
:103E70002269A1681143626941EA02052168C968A3
:103E800041F20C62914329432268D160216849695B
:103E900021F44071A2691143226851612D4A2168C1
:103EA000914202D1FEF7C8F801E0FEF7B5F800EB49
:103EB000C00101EB001162689200B1FBF2F100EB6E
:103EC000C00202EB001263689B00B2FBF3F26423B2
:103ED000B2FBF3F202EBC20303EB0212A1EB82018D
:103EE000322202EB01116422B1FBF2F101F0F00188
:103EF00000EBC00202EB001263689B00B2FBF3F21E
:103F00006423B2FBF3F201EB021200EBC00101EB00
:103F1000001163689B00B1FBF3F100EBC00303EBFE
:103F200000136668B600B3FBF6F36426B3FBF6F342
:103F300003EBC30606EB0313A1EB8301322303EB70
:103F400001116423B1FBF3F101F00F011144226868
:103F5000916070BD00380140014691F83900212878
:103F600028D18868B0F5805F0BD1086948B90A6A22
:103F70001088C0F308000B685860086A801C08624B
:103F800005E00B6A581C086218780B685860C88CEA
:103F9000401E80B2C88458B90868C06820F080000C
:103FA0000B68D8600868C06840F040000B68D860B3
:103FB000002070470220FCE72DE9F04104460D4641
:103FC00017469846069E21E0701CF8B12EB1FDF709
:103FD000B3FEA0EB0800B04218D92068C06820F4F6
:103FE000D0702168C8602068406920F00100216815
:103FF0004861202084F8390084F83A0000BF00208E
:1040000084F8380000BF0320BDE8F0812068006814
:104010002840A84201D1012000E00020B842D3D0BE
:104020000020F1E710B50648FEF73EFB00BF012275
:1040300004490348FEF7E2FC0028F8D110BD000057
:104040001C0200200E00002008B50E480068006821
:10405000C0F34010A8B14FF47A73012269460948B1
:10406000FEF760FC0848007840280ADA9DF8000056
:104070000649054A1278885403480078401C0249D2
:10408000087008BD5C020020190000209C0200207E
:1040900000BFFEE7490050EAC12018BF04204A0DC6
:1040A00018BF40F0010040F2FF72B2EB515F08BF51
:1040B00040F00200012808BF052070470248006850
:1040C000C0F30220704700000CED00E010B500289E
:1040D00004DB0A07130E054A135406E00A07140E00
:1040E000034A00F00F031B1FD45410BD00E400E08E
:1040F00018ED00E02DE9F74F144694B00021C4E913
:1041000002111599079121F00045C9498D4206DC3D
:104110001599C4E9000117B00020BDE8F08FC5492A
:10412000DFF814A3A9423CDD0799C44E0029C44F0F
:10413000C44A1599534619DD03F01EF8554506D0BB
:10414000C14AC24B03F018F8C4E900010AE04FF07D
:10415000D352BE4B03F010F832463B4603F00CF846
:10416000C4E9000117B00120BDE8F08F02F098FC0F
:10417000554506D0B44AB54B02F092FCC4E90001A3
:104180000AE04FF0D352B14B02F08AFC32463B4674
:1041900002F086FCC4E9000117B04FF0FF30BDE823
:1041A000F08FAB49A942159978DB21F00041834695
:1041B0008846A84AA84B02F0D5FE0022A74B02F081
:1041C0006FFC02F075FE099002F0A1FE06460F4654
:1041D0009C4A534602F0C6FE43465A4602F0C0FFD0
:1041E00080468A46984A994B3046394602F0BAFED4
:1041F0002A0D01250B924246534602F0B1FF032DD2
:10420000C4E9000139D00B98C1F30A51401A05EBFB
:1042100045111139814230DA9148C346784400EBA8
:104220000510CDF80CA00C90D0E90023304639469B
:1042300002F098FE02460B460491069058460399F8
:1042400002F09AFF80468A4602460B46584603997A
:1042500002F092FF049B069A02F08EFF83460C98B0
:1042600003913946D0E90223304602F07BFE5A46DC
:10427000039B02F081FF6D1CBDE707980028A2BFD9
:10428000099817B0BDE8F08F616881F00041616066
:10429000099817B04042BDE8F08FFFE784461598B3
:1042A000C1F31301C0F30A50A0F2F5304FEA6018D1
:1042B00000F01F06C6F12000139000200690079022
:1042C00041F4801E05206D4676B1664A08EB000178
:1042D0007A4452F8213002EB8101B3404A681399C5
:1042E00022FA01F1194305E05F4908EB0002794425
:1042F00051F82210A1FB0E27A1FB0C131A449A427D
:1043000034BF0123002303EB070A05EB8003D3E945
:1043100001B70F448F4234BF0121002193448B44E5
:1043200011B1934502D903E0934501D2012100E088
:104330000021C3E901B7514445F82010011EA0F146
:104340000100C1DC0298059F00F10050800F12901F
:104350000298DDE90356800002F0D9FD8346284625
:104360000D9102F0EBFD6FF01D0203F064FACDE950
:104370000E01304602F0E2FD6FF03D0203F05BFA01
:1043800080468A46384602F0D9FD6FF05D0203F0A0
:1043900052FA074642465346119102F081FBDDE98D
:1043A0000E2302F07DFB5A460D9B02F079FB00259F
:1043B0000E465A4628460D9B02F0DEFEDDE90E232E
:1043C00002F0DAFE4246534602F0D6FE3A46119B10
:1043D00002F0C6FEDFF898A0244A534602F0C2FD60
:1043E00007468846234A244B3146284602F0BAFD48
:1043F0003A46434602F054FB074688464FF0A8422F
:1044000053463146284602F0ADFD3A46434602F097
:1044100047FB159A12F0004F04D0129A81F0004128
:1044200052421292C4E90001129817B0BDE8F08F11
:10443000FB21E93F7CD90240FB21F93F7370032E39
:104440008A19A33B000040543163621A61B4D03D25
:10445000FB21394183C8C96D305FE43F0000E03F74
:1044600050390000CC380000AE380000182D4454FC
:10447000FB21F93D3326A611460B113C2DE9FF4DDA
:1044800021F0004807460C46B8F1795F08DA02F0DF
:104490000FFD002801BF0020324904B0BDE8F08DB7
:1044A0003A4623461046194602F05CFD0546024690
:1044B0002D480E460B460621784400F05DF82A464A
:1044C000334602F04FFDDDE9022382468B46384633
:1044D000214602F047FD04460F4652465B462846F9
:1044E000314602F03FFD22463B4602F045FE0746BC
:1044F0008A464FF0FF322846314603F09CF91B4AAA
:1045000090450ADA3A46534602F036FE04B00022DD
:10451000BDE8F04D134B02F023BE154A4245A8BF3B
:10452000A8F500154FF00004B8BF124D22462B46E7
:1045300002F022FE0646884622462B460020094904
:1045400002F01AFE04460D463A46534630464146AE
:1045500002F012FE04B022462B46BDE8F04D02F0F8
:10456000FFBD00000000F03F843600003333D33F2E
:104570000000E93F0000D23F2DE9F0414F1E00EB63
:10458000C7010446D1E9000115461E4637F0060270
:104590000DD02A46334602F0E5FC7F1E04EBC7032C
:1045A000D3E9002302F07CFA37F00602F1D1022FA2
:1045B00025D0042F13D0062F18BFBDE8F0812A465E
:1045C000334602F0CFFCD4E90A2302F069FA2A4606
:1045D000334602F0C7FCD4E9082302F061FA2A4608
:1045E000334602F0BFFCD4E9062302F059FA2A460A
:1045F000334602F0B7FCD4E9042302F051FA2A460C
:10460000334602F0AFFCD4E9022302F049FA2A460D
:10461000334602F0A7FCD4E90023BDE8F04102F0E4
:104620003FBA00002DE9FF4D054621F0004084B05F
:104630000C46B0F1795F0BDA2846FFF72BFD042812
:1046400008BF00F06FF8284608B02146BDE8F08D9D
:104650002A460B46104602F085FC06460F462A46BF
:10466000234602F07FFC804626488A4632463B4677
:1046700005217844FFF780FF83461098029160B3CC
:10468000214A224B4046514602F06CFCCDE9000124
:104690005A4640465146029B02F064FC82468846D8
:1046A000DDE906014FF0FF3203F0C5F852464346FC
:1046B00002F062FD32463B4602F054FCDDE906237F
:1046C00002F05AFDDDE9002302F056FD08B02A464B
:1046D0002346BDE8F04D02F043BD0B465A46304636
:1046E000394602F03FFC084A084B02F0D9F942462D
:1046F000534602F037FC08B02A462346BDE8F04D89
:1047000002F0CEB9C2350000495555555555C5BFC3
:10471000012203F090B8002213461046114602F021
:104720006FBA0000024A0020110703F084B80000AD
:1047300001FDFFFF30380A2801D201207047002018
:10474000704700BF70472DE9FE4306460C461546EC
:1047500005F1A80050F8241004EB440205F12400F0
:1047600000EB82008068081A05282BDA04EB44016C
:1047700005F1240000EB81004068002822DD04EBF5
:10478000440205F1240101EB82014A6805F1A80108
:1047900051F82410501A294600F032FD804604EBEF
:1047A000440205F1240101EB8201486802F084FE15
:1047B0008146414602F0F6FD074602F061FE4DF8E3
:1047C00024003FE005F1A80050F8241004EB440257
:1047D000843800EB82008068084405282BDA04EB5B
:1047E000440105F1240000EB81004068002822DA32
:1047F00004EB440205F1240101EB82014A6805F152
:10480000A80151F824105018294600F0F9FC804600
:1048100004EB440205F1240101EB8201486802F037
:104820004BFE8146414602F0BDFD074602F028FEE0
:104830004DF8240006E02A462146304600F0FEF9F5
:104840004DF824005DF82400BDE8FE832DE9F84F03
:1048500081460D46144605EB850204F1480101EB43
:10486000820105EB85034A6804F1480101EB8301ED
:104870000969511A002901DD00210EE005EB8502CE
:1048800004F1480101EB820105EB85034A6804F15C
:10489000480101EB83010969511A084602F00CFE38
:1048A000074605EB850204F1480101EB820105EBA7
:1048B00085034A6804F1480101EB8301C968511A74
:1048C00000290FDD05EB850204F1480101EB8201AF
:1048D00005EB85034A6804F1480101EB8301C968CF
:1048E000511A00E00021084602F0E6FD8346DFF899
:1048F000C48088F0004A3946504602F0F5FD20D8C1
:1049000005EB450004EB80004068002819DA05EB50
:10491000450204F1240101EB82014868214600F0C0
:104920006FFC824605EB450204F1240101EB820194
:10493000486802F0C1FD5146009002F033FD064682
:104940002EE04146584602F0CFFD20D805EB450049
:1049500004EB80004068002819DD05EB450204F1F6
:10496000240101EB82014868214600F049FC82469F
:1049700005EB450204F1240101EB8201486802F0D5
:104980009BFD5146009002F00DFD064608E02246D0
:1049900029464846FFF7D7FE824602F08DFD0646BF
:1049A000234632462946484600F0FAFE0020BDE87C
:1049B000F88F0000008EE3452DE9F0418AB00446EF
:1049C0000D4616461F46DDF840801C481C4908600D
:1049D00008464760C0F80880C46006614561002150
:1049E0000176417681760121C176002101774177F8
:1049F000FCF7E2FD18B101200AB0BDE8F08100200B
:104A000005900690012007900020009001900290F0
:104A100003900490012008900E20099069460848F0
:104A2000FCF759FC08B10220E6E70548FCF7D0FE88
:104A300008B10320E0E70020DEE70000006400404A
:104A4000DC02002070B504460D4600210E48FCF73C
:104A5000C7FC08B9002070BD2B460C4A00210A484B
:104A6000FCF7D2FC08B10020F5E708480068A04236
:104A700005D10648806810B90448C06808B1002014
:104A8000E9E70248007CE6E7DC0200201C03002086
:104A9000F8B504460D461646012000900C48046007
:104AA000446000200A498860C860084606616B4679
:104AB0002A460848FCF764FB08B10120F8BD00BF96
:104AC0000448FCF75EFD0328FAD10020F6E7000059
:104AD00004030020DC02002000B5244B21F000423A
:104AE00087B09A42DCBF0022134629DD204B9A4250
:104AF00008D140B94FF00100FBF7BEFEFFF70BFEF7
:104B000007B000BD03DBFFF703FE07B000BD02AA3C
:104B1000FFF7F0FA10F0030104BF0DF1080C9CE858
:104B20000F000DD0012001290ED0022914D00DF163
:104B3000080C00909CE80F00FFF774FD07B000BD63
:104B4000FFF79CFC07B000BD0DF1080C00909CE83D
:104B50000F00FFF767FD05E00DF1080C9CE80F0062
:104B6000FFF78CFC07B081F0004100BDFB21E93F5D
:104B70000000F07F10B5044600204FF0E0210861EE
:104B8000FDF7E6FC2046E11704EB5171C1F3CF01BC
:104B9000014A118010BD00000400002070B50446D9
:104BA0004FF47A7094FBF0F594FBF0F100FB1146A2
:104BB00003E0074800F00EF86D1E002DF9D12EB16C
:104BC0004FF47A7106FB01F000F004F870BD0000AC
:104BD00040420F000146114A12884A434FF0E02339
:104BE0005A6100229A611A46126942F001021A6162
:104BF00000BF4FF0E022106900F001021AB100F48A
:104C00008032002AF5D04FF0E022126922F0010232
:104C10004FF0E0231A6100229A61704704000020DF
:104C200000BF054A126802F04002002AF9D0C2B261
:104C3000014B1B1D1A607047003801402DE9FE43EF
:104C400007460C46154604EB440005EB800040681F
:104C500010F10A0F24DA04EB440205F1240101EB00
:104C6000820104EB44034A6805F1240101EB83014E
:104C70008968501A294600F0C3FA804604EB4402C2
:104C800005F1240101EB8201486802F015FC814620
:104C9000414602F087FB064602F0F2FB4DF8240085
:104CA00004EB440005EB800040680A2824DD04EB97
:104CB000440205F1240101EB820104EB44034A683C
:104CC00005F1240101EB83018968501A294600F09F
:104CD00097FA804604EB440205F1240101EB8201BE
:104CE000486802F0E9FB8146414602F05BFB06465C
:104CF00002F0C6FB4DF8240004EB440005EB8000F5
:104D000040680A2824DA04EB440005EB8000406880
:104D100010F10A0F1CDD04EB440205F1240101EB44
:104D200082014868294600F06BFA804604EB440291
:104D300005F1240101EB8201486802F0BDFB8146C8
:104D4000414602F02FFB064602F09AFB4DF8240084
:104D50005DF82400BDE8FE8300B585B000BF00BF4C
:104D60002848806940F040002649886108468069EB
:104D700000F04000009000BF00BF00BF00BF00BFB8
:104D80000846806940F0400088610846806900F06C
:104D90004000009000BF00BF00BF00BF00BF08463A
:104DA000806940F0040088610846806900F00400D2
:104DB000009000BF00BF00BF1020019000200290B3
:104DC000012003900320049001A90F48FCF704FE82
:104DD00008200190002002900120039003200490FD
:104DE00001A90948FCF7F8FD01200190002002907C
:104DF000022003900320049001A90448FCF7ECFD75
:104E000005B000BD0010024000180140000801403C
:104E100000B585B000BF00BF1E48806940F00800A3
:104E20001C4988610846806900F00800009000BFB6
:104E300000BF00BF00BF00BF0846806940F04000CF
:104E400088610846806900F04000009000BF00BF04
:104E500000BF2020019001200290039003200490C5
:104E600001A90D48FCF7B8FD2020019001A90B48CD
:104E7000FCF7B2FD00BF012220210748FCF756FFD6
:104E800000BF00BF012220210448FCF74FFF00BFF4
:104E900005B000BD00100240000C014000180140A8
:104EA000C4B04FF000090020069005904AF6A920F2
:104EB000049000200390029041F2BE50ADF808012A
:104EC000ADF80A014FF47A70ADF80C01002112918F
:104ED000159118915020099050210C910F914FF489
:104EE000C8712A912D91309143F6E000319001462E
:104EF000329140F2F5613391B5483490B54935911E
:104F000046F658013691B4483790B449389100219B
:104F10003991002040904190FCF714FF4FF4E010CD
:104F200000F0E4FA4820FFF725FE4FF4E13000F0EE
:104F30006FFCFFF76DFF4FF4964000F0ABF9FFF701
:104F40000BFF002002239A044FF4E0010090FFF7CA
:104F500033FD3BE1A248008800F4004000287CD0EB
:104F60009F480478322322469E499F48FDF7C2FDA0
:104F700000BF9D4800680068C0F380100028F8D08A
:104F80009AA0FBF77FF900209649085500F084FAB3
:104F90000590059865286CD010DC61283FD006DCB0
:104FA000012814D002281ED0032870D129E06228DD
:104FB00043D0632852D06428F7D156E066380728DA
:104FC00065D2DFE800F065A5ACB0B8C9CF0004AA8F
:104FD00087A18448001DFBF7F1FA4FF4B6610498ED
:104FE00048433190C2E003AA81A17E48001DFBF72F
:104FF000E5FA4FF4B66203991D9802FB01011D9179
:10500000B4E002AA7AA17748001DFBF7D7FA4FF463
:10501000B66202991C9802FB11011C91A6E0BDF832
:105020000C011299CDE90010BDF80A31BDF8082134
:1050300009210220FDF7E8FD98E001208DF8180015
:105040001A9819906B491D9134991D98411A1C9119
:1050500002201299FEF7B5FD88E08BE00220FBF7F5
:1050600044FF00208DF8180080E00220FEF7CCFD00
:105070007CE0BDF80C111598CDE90001BDF80A31AE
:10508000BDF8082109210A20FDF7BEFD6EE06CE0A5
:1050900001208DF819001F991E9107A81E99C1665D
:1050A000359801F034FF82460022534B01F05AFF3D
:1050B00005460E4607A9C86E01F029FF2A46334669
:1050C000CDE9000102F058F8074601F0F1FE014673
:1050D00007A88166359801F01AFF07460022464B63
:1050E00001F040FFCDE9000107A9C86E01F00FFFF4
:1050F0000546DDE9002301F0D3FC824601F0D8FE2D
:10510000014607A8C1660A201599FEF75AFD2DE051
:105110000A20FBF7EAFE00208DF8190026E00A209D
:10512000FEF772FD22E0BDF80A21BDF80811032048
:10513000FEF7F2FB1AE001208DF81A0007A8416F74
:105140000167016F279127993698014407A8C16725
:105150001898FEF7DEFC09E0FBF7E4FE00208DF86E
:105160001A0003E0FEF76DFD00E000BF00BF002065
:105170001B4908800220FBF7F3FE1A900220FBF780
:105180008BFF08900220FBF739FF11909DF8180063
:1051900040B107A9002000F0DDF907AA0021022094
:1051A000FFF754FB089A1A99119800F045F909F194
:1051B000010000F0FF09B9F10A0F07D100BF20215B
:1051C0000E48FCF7A9FD00BF4FF00009C2E6000041
:1051D000ABAA0200FBFF0100CDCCCCBE0AD723BC9A
:1051E0000C000020540100201C0200200D0A0000C9
:1051F00025750000202F01000000E03F001801404D
:105200002DE9F84F05460C46284602F055F9804630
:10521000E434616802F0C6F86060284602F04CF998
:10522000804654F8E41902F05FFA0646C82108598E
:10523000314602F08DF90090C4221059D4F8E810DC
:1052400002F086F98246284602F036F98346D4F801
:10525000C01002F07DF98146514602F0A3F8804665
:10526000009902F09FF80746284602F025F9C4F895
:10527000E400281E01DB014600E04142052902DA74
:105280002046FEF740FC3846BDE8F88F0146086826
:105290007047000010B586B0044600BF00BF40480C
:1052A000806940F020003E4988610846806900F02E
:1052B0002000019000BF00BF00BF00BF00BF084634
:1052C000806940F0040088610846806900F00400AD
:1052D000019000BF00BF00BF00BF00BF084680694B
:1052E00040F0040088610846806900F004000190E5
:1052F00000BF00BF00BF00BF00BF0846C06940F448
:105300000030C8610846C06900F40030019000BF59
:1053100000BF00BF042002900220039001200490EF
:105320000320059002A91F48FCF756FB08200290B5
:105330000020039002A91B48FCF74EFB802002903E
:105340000120039004900320059002A91648FCF761
:1053500043FB1648164908600846446000218160F6
:10536000C160016181610C214161FDF747FA10487C
:105370000068C06840F020000D490968C860262018
:10538000FCF71BFD032211462620FCF726FD00BF7B
:10539000002280210448FCF7C9FC00BF06B010BD04
:1053A0000010024000080140001401400044004089
:1053B0005C02002070B506460D46002400202870CF
:1053C0003220FFF7EBFB00BF04E00848005D3055DA
:1053D000601CC4B2064800788442F6DB04480078BA
:1053E000287000200249087070BD00009C02002057
:1053F0001900002070B504460D4600BF012280212F
:105400000A48FCF793FC00BF4FF47A732A46214602
:105410000748FDF76FFB00200649087000BF002217
:1054200080210248FCF782FC00BF70BD00140140DF
:105430005C02002019000020F0B591B004460D4632
:1054400016462B46224608A101A80096FAF726FF29
:1054500001A8FBF777F987B232233A4601A9084839
:10546000FDF748FB11B0F0BD56454C3A25642C5071
:105470004F533A25642C544F523A25640A000000D9
:105480001C0200200146002901DD012000E000206F
:10549000A0EBD1707047000010B504220CA10E489B
:1054A000FBF76FF908B9012010BD04220BA10A48CF
:1054B000FBF767F908B90220F6E7042209A10648BC
:1054C000FBF75FF908B90320EEE703480078EBE744
:1054D0006C73763A00000000540100204552533AA4
:1054E000000000004952533A0000000030B58FB070
:1054F00005460124282105A8FBF78EF914216846EA
:10550000FBF78AF90120059000040690002007901F
:1055100002200C90C1030D910E9505A8FCF7E6FD45
:1055200004460CB100BFFEE70F200090022001905E
:10553000002002904FF4806003900020049002212C
:105540006846FCF79DFC04460CB100BFFEE70FB0B7
:1055500030BD00002DE9F04F89B081460C468D48E2
:10556000079009EB890204F1480101EB820109EB84
:1055700089030A6904F1480101EB83014968501A63
:1055800001F0C5FC0746844A844B01F039FB05460F
:1055900001F054FA0690069801F0D8FE0546FFF790
:1055A0009BFACDE90201079801F0D0FECDE9000198
:1055B000DDE9022301F0D6FC0746884609EB4901E4
:1055C00004EB8101486801F0A2FC3A464346CDE96C
:1055D000040101F065FA824601F06AFC09EB490119
:1055E00004EB81014860B9F1000F06D0B9F1010F59
:1055F0002ED0B9F1020F61D145E009EB490104EB6E
:1056000081014868002801DB014600E041420A2987
:105610000FDD09EB490004EB8000406840428C211B
:10562000484309EB490204F1240101EB820188603F
:1056300007E0002109EB490204F1240000EB82009D
:10564000816041F2BE50A4F8EC00A4F8EE003EE008
:1056500009EB490104EB81014868FFF713FF404261
:1056600004F1A80151F82910484309EB490204F15B
:10567000240101EB8201886041F2BE50A4F8EC00E5
:10568000A4F8EE0023E009EB490104EB810148682E
:10569000FFF7F8FE404204F1A80151F829104843F1
:1056A00009EB490204F1240101EB8201886041F217
:1056B000BE50A4F8EC00A4F8EE0008E0002109EBCD
:1056C000490204F1240000EB8200816000BF00BFAA
:1056D00009EB490104F1240000EB810080680028F7
:1056E0001FDD09EB490104F1240000EB8100816812
:1056F00004F1A80050F82900814204DD04F1A8005B
:1057000050F8290006E009EB490104F1240000EB00
:105710008100806809EB490204F1240101EB820158
:10572000886009EB490104F1240000EB81008068E6
:1057300000282ADA09EB490304F1240202EB830270
:105740009168002901DB0A4600E04A4204F1A803FF
:1057500053F829309A4204DD04F1A80252F82920B6
:105760000BE009EB490304F1240202EB8302906889
:10577000002801DB024600E04242534209EB4905A2
:1057800004F1240202EB85029360002009B0BDE819
:10579000F08F0000000005436F1283C0CA21394119
:1057A0002DE9F04180460D4617461E46384601F069
:1057B00067FE0446002C0CDB06F1A80050F825001B
:1057C000A04204DA06F1A80050F8250000E02046C7
:1057D0000446002C16DA211E01DB0A4600E04A428C
:1057E00006F1A80353F825309A4204DD06F1A80219
:1057F00052F8252005E02046002801DB024600E0A3
:105800004242544221464046FEF7DBF9BDE8F081B2
:1058100010B5044609480A4908600846446000215A
:105820008160C160016181610C214161FCF7E6FF8B
:10583000012204490248FDF7E1F810BD003801409B
:105840001C0200200E00002030B595B0054613ABB9
:1058500012AA09A9284600F03FFA044614B12046CE
:1058600015B030BD0020149026E0224909689DF84B
:10587000502001EBC20113AB11AA486801A900F046
:105880002BFA04460CB12046EAE709A901A800F06A
:10589000AFFC60B99DF844009DF84810884201DDD6
:1058A0000220DDE79DF85000124988750AE09DF856
:1058B0005000401CC0B214900E48007D9DF850105E
:1058C0008842D2DC00BF0B48007D9DF85010884212
:1058D00001D10420C4E714A9284600F0DDFA0446EB
:1058E0000CB12046BCE79DF85000024948750020E5
:1058F000B6E70000600000202DE9F0419AB09C4816
:10590000847D007DA04202DC1AB0BDE8F081984998
:10591000096801EBC40106AB07AA486808A900F0B2
:10592000DBF908A993A0FAF7ADFC002644E0904803
:10593000008B0121B1400840D8B122218FA0FAF795
:10594000A1FC304600F042FB894924314718394612
:105950008BA0FAF797FC222188A0FAF793FC304637
:1059600000F034FB82492431084410A941F8260094
:1059700018E0304600F02AFB7D492431085810A970
:1059800041F826007A48C07D30B910A850F826109A
:105990007CA0FAF777FC05E010A850F826107AA052
:1059A000FAF770FC9DF81C00401EB04202D078A0AF
:1059B000FAF768FC701CC6B29DF81C008642B6DB84
:1059C00074A0FAF75FFC01F007F86948407D0B28E6
:1059D0000DD2DFE800F0060D151E27323F4E5F7234
:1059E00087006349096851F834008047054690E014
:1059F0005F4A126852F8341010988847054688E0CC
:105A00005B4B1B6853F83420DDE9100190470546D5
:105A10007FE0574F3F6857F8343010A807C89847C1
:105A2000054676E0DFF848C1DCF800C05CF8347069
:105A300010A80FC8B84705466BE01498DFF830C1CE
:105A40000090DCF800C05CF8347010A80FC8B847AC
:105A500005465EE0DDE91401DFF814C1CDE900017F
:105A6000DCF800C05CF8347010A80FC8B8470546D1
:105A70004FE0DDE914121698DFF8F4C0CDE900120A
:105A80000290DCF800C05CF8347010A80FC8B8476A
:105A900005463EE0DDE91423DDE91610DFF8D0C04D
:105AA000CDE90023CDE90210DCF800C05CF83470C9
:105AB00010A80FC8B84705462BE0DDE91523DDE93E
:105AC0001710CDE90123CDE903101498DFF8A0C029
:105AD0000090DCF800C05CF8347010A80FC8B8471C
