:020000040800F2
:10000000E00900202D020008D53000087D230008FB
:10001000812300086D0700088935000800000000F2
:100020000000000000000000000000000131000896
:1000300071070008000000004302000845020008A4
:10004000470200084702000847020008470200086C
:10005000470200084702000847020008470200085C
:10006000470200084702000847020008470200084C
:10007000470200084702000847020008470200083C
:10008000470200084702000847020008470200082C
:10009000470200084702000847020008470200081C
:1000A000470200084702000847020008470200080C
:1000B0004702000847020008813100084702000893
:1000C00047020008470200084702000847020008EC
:1000D000470200081D3500084135000847020008A6
:1000E00047020008470200084702000847020008CC
:1000F00047020008470200084702000847020008BC
:1001000047020008470200084702000847020008AB
:10011000470200084702000847020008470200089B
:10012000470200084702000847020008470200088B
:1001300000F002F800F06BF80AA090E8000C82448E
:100140008344AAF10107DA4501D100F060F8AFF26B
:10015000090EBAE80F0013F0010F18BFFB1A43F0A5
:100160000103184768530000885300000A444FF009
:10017000000C10F8013B13F0070408BF10F8014B06
:100180001D1108BF10F8015B641E05D010F8016B4B
:10019000641E01F8016BF9D113F0080F1EBF10F8AF
:1001A000014BAD1C0C1B09D16D1E58BF01F801CBD2
:1001B000FAD505E014F8016B01F8016B6D1EF9D555
:1001C0009142D6D37047000000230024002500266A
:1001D000103A28BF78C1FBD8520728BF30C148BFAA
:1001E0000B607047642900F09F80752900F09C80A7
:1001F000782900F0D380632900F04E82732900F043
:100200005382002070471FB51FBD10B510BD00F010
:100210007DFA1146FFF7F7FF03F09CFC00F09BFA14
:1002200003B4FFF7F2FF03BC03F0D3F9094880479A
:1002300009480047FEE7FEE7FEE7FEE7FEE7FEE7C8
:10024000FEE7FEE7FEE7FEE704480549054A064BE0
:10025000704700007F31000831010008E0030020F2
:10026000E0090020E0050020E005002070470000C4
:100270000FB4044910B503AA029800F019FA10BC93
:100280005DF814FB0800002070B50446856900681D
:10029000C10601D5302600E02026C00707D070BD7A
:1002A000D4E9012130469047206A401C20626D1E2F
:1002B000F6D570BD70B5044685690078C00707D1D2
:1002C00070BDD4E9012120209047206A401C2062A3
:1002D0006D1EF6D570BD70B50C460546012A05D0D9
:1002E0002878800600D5EA69002302E0012305E0B2
:1002F0005B1C934202D2E05C0028F9D1A869E618A1
:10030000C01AA861286A184428622846FFF7BCFF73
:1003100004E0D5E9012114F8010B9047B442F8D369
:100320002846FFF7C7FF70BD2DE9F04106460024BF
:1003300010687529314615A510D0AFF3008000284C
:1003400002DA404212A507E031688A0701D511A5FB
:1003500002E0490704D510A5012401E0AFF30080B5
:1003600000210A2306F1240707E0B0FBF3F203FBA8
:100370001200303078541046491C0028F5D123462D
:100380002A463046BDE8F04100F023B900000000E5
:100390002D0000002B0000002000000070B5044676
:1003A0000D4621461068AFF300802188090502D56B
:1003B0000F4A7A4402E00E4A7A440E32002104F1D8
:1003C000240305E000F00F060009965D5E54491C09
:1003D0000028F7D120780023000704D5702D02D023
:1003E00009B1022311322046BDE8704000F0F1B897
:1003F000FA4F00002DE9F05F894604464FF0000AED
:10040000DFF874B1FB44C0F820A02046E1688847BB
:10041000002874D0252806D0D4E901219047206A0D
:10042000401C2062F1E700265F462046E1688847CD
:100430002028054607DB312D05D2781910F8200C4D
:1004400008B10643F1E7B00701D526F00406C4F869
:100450001CA00027C4F818A02A2D09D0284603F0B4
:10046000B1F838B304EB8708303DC8F8185019E0EC
:1004700059F8041B204604EB87029161E168884724
:10048000012F054618D1E069002820DA26F0200661
:100490001DE0D8F8180000EB800005EB4000303874
:1004A000C8F818002046E1688847054603F08AF836
:1004B0000028EED1012F0AD02E2D08D12046E16868
:1004C00088477F1C0546022F46F02006C4DBA06942
:1004D000002803DA404246F00106A061F00701D08F
:1004E00026F010066C2D0BD0682D09D04C2D39D07C
:1004F0006A2D35D0742D35D07A2D33D016E038E002
:10050000E1682F4620468847B842054609D16C2F3E
:1005100026D04FF48060E1680643204688470546B0
:1005200004E06C2F1AD04FF4807006430DB3A5F190
:100530004100192802D8203546F400664A4629466B
:10054000204626604E46FFF74DFE80B101280BD0B5
:10055000F61D26F0070000F1080956E74020E4E701
:100560008020D8E70020D6E706F104094DE72846A9
:1005700052E7206ABDE8F09FD04F00004FF0000224
:1005800000B5134694469646203922BFA0E80C5089
:10059000A0E80C50B1F12001BFF4F7AF090728BF64
:1005A000A0E80C5048BF0CC05DF804EB890028BFE0
:1005B00040F8042B08BF704748BF20F8022B11F009
:1005C000804F18BF00F8012B704770477047704785
:1005D00070472DE9F0470D4699469246044600F1D2
:1005E00024080168880604D5E06921F01001216023
:1005F00000E00120A84201DD471B00E00027A169BF
:100600007A1902EB0900081AA0612078C00602D40A
:100610002046FFF739FE002608E0D4E901211AF848
:1006200006009047206A401C761C20624E45F4DB91
:100630002078C0060AD52046FFF726FE06E0D4E95A
:10064000012130209047206A401C2062381EA7F10B
:100650000107F4DC07E0D4E9012118F80500904710
:10066000206A401C2062281EA5F10105F3DC20460B
:10067000FFF720FE2078000602D50220BDE8F087B3
:100680000120FBE710B5436913B1AFF3008001E02F
:10069000FFF721FE012010BD127800F124010A703D
:1006A00000224A700122EDE711684FF0FF32E9E7BE
:1006B000074B70B50D467B4400F011F80446284600
:1006C00000F020F810B14FF0FF3070BD204670BD33
:1006D0007332000001694A1C02610878704700B556
:1006E0008FB0CDE901310021059105497944CDE96B
:1006F000031011466846FFF77DFE0FB000BD0000F5
:10070000E5FFFFFF007B00F080007047754600F0BA
:1007100029F8AE4605006946534620F00700854695
:1007200018B020B5FFF790FDBDE820404FF000065F
:100730004FF000074FF000084FF0000B21F00701C9
:10074000AC46ACE8C009ACE8C009ACE8C009ACE80C
:10075000C0098D4670470446AFF300802046FFF77E
:100760005FFD0000004870478003002000BFFEE7E7
:1007700070471CB506208DF8000000208DF80100A0
:100780008DF802008DF803008DF804008DF8050047
:100790008DF806008DF807000622694640F20A200F
:1007A00003F04AF8044620461CBD7CB500254020D5
:1007B0008DF8000064208DF8010060208DF80200A3
:1007C00000208DF803008DF804008DF805008DF8E9
:1007D00006008DF807000822694640F20A6003F01F
:1007E0002BF804460A2003F05FF8694640F28A506D
:1007F00002F0CEFF044674B19DF8070000069DF894
:10080000061040EA01409DF804109DF8052041EAD9
:10081000022140EA010528467CBD7CB50025402028
:100820008DF8000069208DF8010060208DF802002D
:1008300000208DF803008DF804008DF805008DF878
:1008400006008DF807000822694640F20A6002F0AF
:10085000F3FF04460A2003F027F8694640F28A5065
:1008600002F096FF044674B19DF8070000069DF85B
:10087000061040EA01409DF804109DF8052041EA69
:10088000022140EA010528467CBD000030B587B052
:100890000120019000258DF8140003208DF815002B
:1008A00006208DF816008DF8170000208DF818002E
:1008B00002208DF81900062105A801F063FD044609
:1008C000E0B28DF81A0020128DF81B00082105A84F
:1008D00003F0E6FA01A902A803F0C2FA9DF80400A9
:1008E00088B19DF80B0000069DF80C1040EA01400D
:1008F0009DF80E109DF80D2041EA022140EA010505
:10090000284607B030BD02A0FFF7B2FC0020F8E790
:100910004E6F2072656365697665642064617461F9
:100920000A000000F0B504460D461E4694F82070FB
:1009300020688368A86800B900E000BF012F01D0DB
:10094000022F7CD103F0806030B903F0006018B949
:1009500003F08050002873D0C3F30161022905D948
:10096000606A40F4000060620120F0BD0120884010
:100970003060A86860B9B5F800C0E86840EA4C5C2F
:10098000206800F5C07000EB0110C0F800C00FE057
:10099000D5E901C040EACC00D5F80CC040EA0C0013
:1009A000D4F800C00CF5C07C0CEB011CCCF80000A6
:1009B000D5F810C0206800F5C07000EB0110C0F839
:1009C00004C0287D01280ED1206800F5C07000EB1E
:1009D0000110406840F4807C206800F5C07000EB96
:1009E0000110C0F804C0D079000692F806C040EAB1
:1009F0000C4092F805C040EA0C2C10794CEA000C2F
:100A0000206800F5C07000EB0110C0F80CC0D07871
:100A1000000692F802C040EA0C4092F801C040EA99
:100A20000C2092F800C040EA0C00D4F800C00CF58D
:100A3000C07C0CEB011CCCF80800206801E016E03B
:100A40000FE000F5C07000EB0110006840F0010CF1
:100A5000206800F5C07000EB0110C0F800C0002055
:100A600083E7606A40F40010606201207DE7606AFD
:100A700040F480206062012077E7F0B504460A4622
:100A8000216894F82050012D01D0022D74D1D1F8A5
:100A9000000240F00100C1F80002107D00F01F06C6
:100AA000012000FA06F3D1F81C029843C1F81C0299
:100AB000D069C8B9D1F80C029843C1F80C029088EB
:100AC00080B2968940EA064601F51070576940F8F1
:100AD0003760108880B2168940EA064601F510702A
:100AE000576900EBC7004660D069012819D1D1F8D9
:100AF0000C021843C1F80C02908880B2168840EAB4
:100B0000064601F51070576940F83760908980B249
:100B1000168940EA064601F51070576900EBC700D8
:100B20004660906928B9D1F804029843C1F80402DC
:100B300004E0D1F804021843C1F80402106928B98E
:100B4000D1F814029843C1F8140204E0D1F8140259
:100B50001843C1F81402106A012804D1D1F81C020C
:100B60001843C1F81C02D1F8000220F00100C1F8BE
:100B700000020020F0BDFFE7606A40F48020606260
:100B80000120F7E710B50246002092F82030012B33
:100B900001D0022B09D121B91468E46804F00300E4
:100BA00003E01468246904F0030010BD70B5044626
:100BB00094F82050012D01D0022D7DD151B920682B
:100BC000C06800F0030080B9606A40F40010606201
:100BD000012070BD2068006900F0030028B9606A38
:100BE00040F4001060620120F3E7206800F5D8703F
:100BF00000EB0110006800F004009060906840B9BC
:100C0000206800F5D87000EB01100068400D1060FE
:100C100007E0206800F5D87000EB01100068C008FC
:100C20005060206800F5D87000EB0110006800F0FB
:100C30000200D060206800F5D87000EB0110406819
:100C400000F00F001061206800F5D87000EB011073
:100C5000406800F47F40000A9061206800F5D87079
:100C600000EB01104068000C5061206800F5D8705E
:100C700000EB011080681870206800F5D87000EB58
:100C80000110806800F47F40000A5870206800F569
:100C9000D87000EB0110806800F47F00000C9870A1
:100CA000206800F5D87000EB01108068000ED87045
:100CB000206800F5D87000E02FE000EB0110C0685C
:100CC0001871206800F5D87000EB0110C06800F4BE
:100CD0007F40000A5871206800F5D87000EB0110C1
:100CE000C06800F47F00000C9871206800F5D8708F
:100CF00000EB0110C068000ED87131B92068C068DF
:100D000040F020002668F06005E02068006940F0AF
:100D100020002668306100205BE7606A40F4802094
:100D20006062012055E70146002091F82020012A49
:100D300001D0022A11D10B689B6803F0806303B1D4
:100D4000401C0B689B6803F0006303B1401C0B68F8
:100D50009B6803F0805303B1401C704770B5044694
:100D60000CB9012070BD94F8200010B9204600F0A5
:100D7000AFF82068006820F002002168086000F0E9
:100D8000B5FB05460DE000F0B1FB401B0A2808D971
:100D9000606A40F400306062052084F82000012081
:100DA000E0E72068406800F002000028EBD12068EE
:100DB000006840F001002168086000F097FB0546DC
:100DC0000DE000F093FB401B0A2808D9606A40F44C
:100DD00000306062052084F820000120C2E720680E
:100DE000406800F001000028EBD0207E012806D1E9
:100DF0002068006840F080002168086005E02068F5
:100E0000006820F0800021680860607E012806D11B
:100E10002068006840F040002168086005E0206814
:100E2000006820F0400021680860A07E012806D1FB
:100E30002068006840F020002168086005E0206814
:100E4000006820F0200021680860E07E012806D1BB
:100E50002068006820F010002168086005E0206824
:100E6000006840F0100021680860207F012806D14A
:100E70002068006840F008002168086005E02068EC
:100E8000006820F0080021680860607F012806D112
:100E90002068006840F004002168086005E02068D0
:100EA000006820F0040021680860D4E902010843CA
:100EB00021690843616908436168491E0843216844
:100EC000C86100206062012084F82000002049E70A
:100ED00010B586B0044624492068884241D100BF3D
:100EE00000BF2248806940F004002049886108461C
:100EF000806900F00400019000BF00BF00BF00BF88
:100F000000BF0846806940F0040088610846806997
:100F100000F00400019000BF00BF00BF00BF084602
:100F2000C06940F00070C8610846C06900F00070F8
:100F3000019000BF00BF881402900220039001209E
:100F400004900320059002A9094800F017F94FF416
:100F5000006002900020039002A9054800F00EF9FD
:100F600000BF06B010BD0000006400400010024049
:100F70000008014070B5044694F82000012822D1F1
:100F8000022084F820002068006820F00100216819
:100F9000086000F0ABFA05460DE000F0A7FA401B30
:100FA0000A2808D9606A40F400306062052084F89D
:100FB0002000012070BD2068406800F0010000287A
:100FC000EBD16062F6E7606A40F4002060620120C5
:100FD000F0E7000070B50446002594F821000228CF
:100FE00003D00420A0630125C1E02068006820F040
:100FF0000E00216808602068006820F00100216868
:1010000008605C492068884252D95A49783920687A
:10101000884201D1012047E056496439206888425E
:1010200001D1102040E0534950392068884201D155
:10103000801539E04F493C392068884201D180143D
:1010400032E04C4928392068884202D14FF4803080
:101050002AE0484914392068884202D14FF48010B0
:1010600022E044492068884201D140041CE0424902
:101070002068884201D1012016E03F4914312068E0
:10108000884201D110200FE03B4928312068884276
:1010900001D1801508E038493C312068884201D1EF
:1010A000801401E04FF480303349091F086051E09B
:1010B000304978392068884201D1012047E02D4924
:1010C00064392068884201D1102040E02949503914
:1010D0002068884201D1801539E026493C392068D2
:1010E000884201D1801432E02249283920688842A0
:1010F00002D14FF480302AE01E491439206888421A
:1011000002D14FF4801022E01A492068884201D1B0
:1011100040041CE018492068884201D1012016E0F3
:10112000154914312068884201D110200FE012497E
:1011300028312068884201D1801508E00E493C31F1
:101140002068884201D1801401E04FF480300949C1
:1011500080394860012084F8210000BF002084F815
:10116000200000BF606B10B12046616B88472846A5
:1011700070BD000080000240080402402DE9F847DD
:10118000024600239C467BE14FF0010808FA03F475
:10119000D1F8008008EA0400A0427DD1DFF8F4A273
:1011A000D1F80480A8EB0A09D0453AD014DCB8F194
:1011B000030F50D009DCB8F1000F31D0B8F1010FA6
:1011C0001CD0B8F1020F49D120E0B8F1110F18D0AE
:1011D000B8F1120F42D11EE0B9F5881F25D006DC08
:1011E000B9F5803F20D0B9F5801F37D11AE0B9F5A5
:1011F000001F18D0B9F5041F30D117E0D1F80CC08A
:101200002DE0D1F80C8008F1040C28E0D1F80C8016
:1012100008F1080C23E0D1F80C8008F10C0C1EE05A
:1012200000BF00BF00BF00BF00BF00BFD1F80880F3
:10123000B8F1000F02D14FF0040C0BE0D1F8088098
:10124000B8F1010F03D14FF0080C146102E04FF028
:10125000080C546103E04FF0000C00E000BF00BF39
:10126000FF2801D8904601E002F104084646FF2815
:1012700002D84FEA830803E0A3F108084FEA880880
:101280004746D6F800804FF00F0909FA07F928EA17
:1012900009080CFA07F900E07AE048EA0908C6F8FC
:1012A0000080D1F8048008F08058B8F1805F6FD1D9
:1012B00000BFDFF8E481D8F8188048F00108DFF8B3
:1012C000D891C9F81880C846D8F8188008F00108E5
:1012D000CDF8008000BF00BF4FEAB9384FEA93094C
:1012E00058F829504FEA83784FEA18794FF00F08E1
:1012F00008FA09F825EA0805DFF8A081424502D17D
:101300004FF0000824E0DFF89881424502D14FF009
:1013100001081DE0DFF88C81424502D14FF0020840
:1013200016E0DFF88481424502D14FF003080FE058
:10133000DFF87881424502D14FF0040808E0DFF879
:101340007081424502D14FF0050801E04FF00608D8
:101350004FEA83794FEA197908FA09F848EA05054E
:10136000DFF850814FEA930948F82950D1F80480FA
:1013700008F48038B8F5803F0BD1DFF83C81D8F80D
:10138000008048EA0008DFF83091C9F800800AE0E0
:1013900075E0DFF82481D8F8008028EA0008DFF83B
:1013A0001891C9F80080D1F8048008F40038B8F525
:1013B000003F0ED1DFF8008108F10408D8F8008062
:1013C00048EA0008DFF8F09009F10409C9F8008044
:1013D0000DE0DFF8E48008F10408D8F8008028EA7E
:1013E0000008DFF8D49009F10409C9F80080D1F8A9
:1013F000048008F48018B8F5801F0ED1DFF8B8809B
:1014000008F10808D8F8008048EA0008DFF8A8903A
:1014100009F10809C9F800800DE0DFF89C8008F1A7
:101420000808D8F8008028EA0008DFF88C9009F155
:101430000809C9F80080D1F8048008F40018B8F54C
:10144000001F0ED1DFF8708008F10C08D8F800807A
:1014500048EA0008DFF8609009F10C09C9F800803B
:101460000DE0DFF8548008F10C08D8F8008028EA75
:101470000008DFF8449009F10C09C9F800805B1CF2
:10148000D1F8008028FA03F8B8F1000F7FF47CAEA1
:10149000BDE8F8870000111000100240000801406C
:1014A000000C0140001001400014014000180140F0
:1014B000001C0140080001400004014002469368FE
:1014C0000B400BB1012000E00020704710B5C2684E
:1014D00021EA020302EA010443EA0443036110BD66
:1014E0000AB1016101E00B04036170470148006823
:1014F000704700001000002010B50848006840F058
:10150000100006490860052000F080F80F2000F068
:1015100007F800F02BF8002010BD0000002002406A
:1015200070B504460E4800784FF47A71B1FBF0F0C4
:101530000C490968B1FBF0F5284600F0F7FB08B14B
:10154000012070BD102C07D200222146501E00F051
:101550001EF80548046001E00120F2E70020F0E7F2
:1015600018000020000000201400002070470146F1
:101570000846002809DB00F01F0301229A404309B6
:101580009B0003F1E023C3F8002100BF70472DE961
:10159000F05F80460D461646002701F0F7FF07462C
:1015A00039462A46334601F00700C0F1070ABAF16E
:1015B000040F02D94FF0040A01E0C0F1070AD14636
:1015C00000F1040ABAF1070F02D24FF0000A01E05D
:1015D000A0F1030AD4464FF0010A0AFA09FAAAF167
:1015E000010A0AEA020A0AFA0CFA4FF0010B0BFA96
:1015F0000CFBABF1010B0BEA030B4AEA0B0421468F
:10160000404601F0CBFFBDE8F09F000000BF00F0B6
:101610000702064B19684FF6FF031940044B0B43B2
:1016200043EA0221014B196000BF70470CED00E056
:101630000000FA0570B504460D460CB9012070BDD6
:101640005A48006800F00700A8420ED257480068C8
:1016500020F007002843554908600846006800F05C
:101660000700A84201D00120E9E7207800F002003D
:1016700002281DD1207800F00400042805D14C4830
:10168000406840F4E0604A494860207800F0080073
:10169000082805D14648406840F4605044494860F5
:1016A0004348406820F0F000A16808434049486082
:1016B000207800F0010078B36068012806D13C482A
:1016C000006800F4003090B90120B8E76068022893
:1016D00006D13748006800F0007040B90120AEE73D
:1016E0003348006800F0020008B90120A7E730483D
:1016F000406820F00300616808432D494860FFF707
:10170000F5FE064609E0FFF7F1FE801B41F2883145
:10171000884202D9032092E707E02548406800F09C
:101720000C006168B0EB810FEDD12048006800F03B
:101730000700A8420ED91D48006820F00700284382
:101740001A4908600846006800F00700A84201D066
:10175000012074E7207800F00400042807D1144821
:10176000406820F4E060E16808431149486020784F
:1017700000F00800082808D10D48406820F46050A7
:10178000216940EAC1000A49486000F03FF8084971
:101790004968C1F30311074A515CC8400649086013
:1017A00006480068FFF7BCFE002048E70020024022
:1017B00000100240705100080000002014000020BA
:1017C00001480068704700000000002000B5FFF7E6
:1017D000F7FF04494968C1F30221034A515CC8403C
:1017E00000BD0000001002408051000800B5FFF766
:1017F000E7FF04494968C1F3C221034A515CC8406C
:1018000000BD00000010024080510008F0B585B016
:101810000FF26C0C9CE8E01001A8A0E8E0101CA5F9
:101820002D68009500210022002300240020194D7E
:10183000696801F00C05F5B1042D02D0082D19D10D
:1018400001E0154819E001ADC1F38346AC5D01F438
:10185000803555B10F4D6D68C5F340451DF8052025
:101860000D4D6543B5FBF2F302E00C4D04FB05F3AF
:10187000184602E000BF084800BF00BF05B0F0BD39
:1018800002030405060708090A0B0C0D0E0F1010C1
:10189000010200000010024000127A0000093D0021
:1018A000F8B504460CB90120F8BD207800F001001D
:1018B000002878D0F848406800F00C0004280CD0CC
:1018C000F548406800F00C00082811D1F248406843
:1018D00000F48030B0F5803F0AD1EF48006800F492
:1018E000003000285FD0606800285CD10120DBE771
:1018F00000BF6068B0F5803F06D1E748006840F45B
:101900008030E549086028E0606858B9E24800681E
:1019100020F48030E04908600846006820F4802008
:1019200008601AE06068B0F5A02F0BD1DA480068B3
:1019300040F48020D84908600846006840F48030B0
:1019400008600AE0D448006820F48030D24908607A
:101950000846006820F48020086000BF606888B1F5
:10196000FFF7C4FD054606E0FFF7C0FD401B6428F5
:1019700001D9032098E7C848006800F40030002827
:10198000F2D010E0FFF7B2FD054606E0FFF7AEFD2E
:10199000401B642801D9032086E7BF48006800F493
:1019A00000300028F2D1207800F00200022857D140
:1019B000B948406800F00C0050B1B748406800F0EA
:1019C0000C00082818D1B448406800F4803098B959
:1019D000B148006800F0020020B12069012801D060
:1019E000012061E7AC48006820F0F800616940EA36
:1019F000C100A949086033E02069E8B10120A74986
:101A00000860FFF773FD054606E0FFF76FFD401B1A
:101A1000022801D9032047E79F48006800F0020030
:101A20000028F2D09C48006820F0F800616940EA84
:101A3000C1009949086013E0002098490860FFF749
:101A400055FD054606E0FFF751FD401B022801D970
:101A5000032029E79048006800F002000028F2D136
:101A6000207800F0080008282DD1A069B8B1012025
:101A70008B490860FFF73AFD054606E0FFF736FDA3
:101A8000401B022801D903200EE78348406A00F07A
:101A900002000028F2D0012001F01EFB13E000201C
:101AA0007F490860FFF722FD054606E0FFF71EFDAF
:101AB000401B022801D90320F6E67748406A00F06F
:101AC00002000028F2D1207800F00400042873D12D
:101AD00000277148C06900F0805070B900BF6E489F
:101AE000C06940F080506C49C8610846C06900F088
:101AF0008050009000BF00BF01276A48006800F4D2
:101B00008070B0B96748006840F48070654908602B
:101B1000FFF7ECFC054606E0FFF7E8FC401B6428F5
:101B200001D90320C0E65F48006800F480700028F7
:101B3000F2D000BFE068012806D15748006A40F0A3
:101B400001005549086227E0E06858B95248006A28
:101B500020F00100504908620846006A20F00400A5
:101B6000086219E0E06805280BD14B48006A40F094
:101B70000400494908620846006A40F00100086212
:101B80000AE04548006A20F001004349086208461F
:101B9000006A20F00400086200BFE068A0B1FFF70F
:101BA000A5FC054609E0FFF7A1FC401B41F2883186
:101BB000884202D9032077E622E03748006A00F025
:101BC00002000028EFD012E0FFF790FC054608E085
:101BD000FFF78CFC401B41F28831884201D9032079
:101BE00062E62D48006A00F002000028F0D1012FC3
:101BF00005D12948C06920F080502749C86100BF3D
:101C0000E069C8B32448406800F00C00082860D0A0
:101C1000E069022848D1002020490866FFF766FCE9
:101C2000054606E0FFF762FC401B022801D90320AD
:101C30003AE61948006800F000700028F2D1206AE6
:101C4000B0F5803F07D11448406820F40030A16807
:101C5000084311494860D4E9080108430E4949681E
:101C600021F4741108430C49486001200B490866AF
:101C7000FFF73CFC054607E03DE0FFF737FC401B63
:101C8000022801D903200FE60348006800F0007025
:101C90000028F2D02FE00000001002400000424275
:101CA0008004424200700040002014490866FFF79B
:101CB0001DFC054606E0FFF719FC401B022801D970
:101CC0000320F1E50E48006800F000700028F2D112
:101CD00011E0E069012800D1E6E50948466806F40C
:101CE0008031206A814204D106F47011606A814219
:101CF00001D00120D8E50020D6E5000000004242D6
:101D000000100240042808D14FF0E021096941F099
:101D100004014FF0E022116107E04FF0E021096972
:101D200021F004014FF0E0221161704770B50446C4
:101D30002546681EB0F1807F01D301200FE0681EA8
:101D40004FF0E02148610F214FF0FF3001F026FCF9
:101D500000204FF0E021886107200861002070BD5D
:101D600010B504460CB9012010BD94F83D0028B907
:101D7000002084F83C00204600F025F8022084F87A
:101D80003D00211D206801F01DFA012084F8460065
:101D900000BF84F83E0001213F200155402001553D
:101DA0004120015500BF00BF012084F842004320BC
:101DB0000155442001554520015500BF012084F8FC
:101DC0003D000020D0E77047014691F83D00012812
:101DD00001D001207047022081F83D000868C068EA
:101DE00040F001000B68D860164B0868984213D089
:101DF000154B086898420FD00868B0F1804F0BD09F
:101E0000124B0868984207D0114B0868984203D0DB
:101E1000104B086898420CD10868806800F00702EF
:101E2000062A0CD00868006840F001000B681860B2
:101E300005E00868006840F001000B6818600020A9
:101E4000C8E70000002C01400034014000040040BD
:101E500000080040000C0040704700002DE9F047EA
:101E60000446206805682068C668206847694FF006
:101E70000008C14605F00F08B8F1000F0AD105F0BF
:101E8000200038B106F0200020B1204601F012FAFF
:101E9000BDE8F087B8F1000F71D007F0010018B964
:101EA00006F4907000286AD005F0010030B106F405
:101EB000807018B1E06B40F00100E06305F00400B1
:101EC00030B107F0010018B1E06B40F00200E063B0
:101ED00005F0020030B107F0010018B1E06B40F0EE
:101EE0000400E06305F0080048B106F0200010B9D6
:101EF00007F0010018B1E06B40F00800E063E06B10
:101F000068B305F0200028B106F0200010B120468B
:101F100001F0D0F920684069C0F38019E06B00F04F
:101F2000080010B9B9F1000F22D0204601F0A2F943
:101F30002068406900F04000B0B12068406920F09E
:101F4000400021684861606B50B11848616B48637C
:101F5000606BFFF73FF810B1606B416B88470CE096
:101F60002046FFF779FF08E02046FFF775FF04E001
:101F70002046FFF771FF0020E06389E7FFE705F0E7
:101F8000800030B106F0800018B1204601F060FA00
:101F90007EE705F0400030B106F0400018B1204661
:101FA00001F078F974E700BF72E7000061320008C1
:101FB00010B504460CB9012010BDA06900B100E0C5
:101FC00000BF94F8390028B9002084F83800204672
:101FD00000F028F8242084F839002068C06820F434
:101FE00000502168C860204601F0B4F920680069FB
:101FF00020F49040216808612068406920F02A00A0
:10200000216848612068C06840F400502168C860B9
:102010000020E063202084F8390084F83A00002092
:10202000CAE7000010B586B00446284920688842F7
:102030004AD100BF00BF2648806940F0040024490F
:1020400088610846806900F00400019000BF00BF6D
:1020500000BF00BF00BF0846806940F004008861EF
:102060000846806900F00400019000BF00BF00BF77
:1020700000BF00BF0846806940F480408861084680
:10208000806900F48040019000BF00BF00BF481588
:10209000029002200390012004900320059002A9E1
:1020A0000C48FFF76BF84FF480600290002003901B
:1020B00002A90848FFF762F82520FFF758FA032223
:1020C00011462520FFF763FA06B010BD0038014025
:1020D00000100240000801402DE9F84F04460E466A
:1020E000174699464FF0000A94F83A0020285DD12F
:1020F00006B117B90120BDE8F88F00BF94F8380089
:10210000012801D10220F6E7012084F8380000BF41
:102110000020E063222084F83A00FFF7E7F98246C6
:10212000A785E785A068B0F5805F04D1206910B964
:102130000025B04602E035464FF0000800BF002001
:1021400084F8380000BF29E05346002220212046B1
:10215000CDF8009001F0ACF908B10320CBE745B908
:1021600020684068C0F30800A8F8000008F10208E1
:1021700011E0A068B0F5805F03D0A06828B920699D
:1021800018B920684068287004E02068406800F0B2
:102190007F0028706D1CE08D401EE085E08D0028DA
:1021A000D2D1202084F83A000020A4E70220A2E740
:1021B00010B5034693F83A0020282FD101B10AB98F
:1021C000012010BD00BF93F83800012801D1022082
:1021D000F7E7012083F8380000BF99629A85DA8515
:1021E0000020D863222083F83A0000BF002083F843
:1021F000380000BF1868C06840F480701C68E06058
:102200001868406940F001001C6860611868C06887
:1022100040F020001C68E0600020D2E70220D0E7F8
:102220001D4A0168914236D11C49098801F40041D8
:1022300089BB1A49098801F4804171B118490978AC
:102240000A2903D00021154A118024E01349098886
:1022500041F40041114A11801DE0114909780D290E
:1022600006D10E49098841F480410C4A118012E0E0
:102270000B490978094A1288C2F30D02094B995497
:1022800006490988491C054A118011460988C72951
:1022900001DD002111807047003801400C00002052
:1022A0000E000020540100202DE9F84F04460E4690
:1022B000174699464FF0000A94F8390020285AD161
:1022C00006B117B90120BDE8F88F00BF94F83800B7
:1022D000012801D10220F6E7012084F8380000BF70
:1022E0000020E063212084F83900FFF7FFF88246E0
:1022F000A784E784A068B0F5805F04D1206910B995
:102300000025B04602E035464FF0000800BF00202F
:1023100084F8380000BF1BE053460022802120468D
:10232000CDF8009001F0C4F808B10320CBE745B91F
:10233000B8F80000C0F308002168486008F10208FE
:1023400003E02878216848606D1CE08C401EE08422
:10235000E08C0028E0D15346002240212046CDF8F1
:10236000009001F0A5F808B10320ACE7202084F824
:1023700039000020A7E70220A5E7704700BFFEE76D
:1023800000BFFEE770B502460C46FF25FF2309E0BB
:1023900012F8010B80EA03010648405C80EA05035D
:1023A0000548455C2000A4F10106B4B2F0D143EA2F
:1023B000052070BD90510008905200082DE9FC479F
:1023C00004460E4617461D46DDF828800A2001F017
:1023D0006BFA02208DF800000A208DF80100002021
:1023E0008DF802008DF803008DF804008DF80500CB
:1023F0008DF806008DF807000222694601F01CFAEC
:1024000081464946FEA0FDF733FF82208DF800008B
:102410000A208DF8010000208DF802008DF80300DD
:102420008DF804008DF805008DF806008DF8070082
:102430000222694601F000FA81464946F9A0FDF7FB
:1024400017FF2F208DF8000060208DF801008DF817
:10245000020000208DF803008DF804408DF805007F
:102460008DF806008DF807000822694640F20A60E0
:1024700001F0E2F981464946F3A0FDF7F9FE40205C
:102480008DF8000061208DF8010060208DF80200B9
:1024900000208DF803008DF804008DF805008DF8FC
:1024A00006008DF807000822694640F20A6001F034
:1024B000C3F981464946EDA0FDF7DAFE042C01D1AF
:1024C0000A2C6AD0082C01D0012C22D123208DF8AF
:1024D000000081208DF8010060208DF802000020AE
:1024E0008DF80300E8B28DF80400280A8DF8050085
:1024F000280C8DF80600280E8DF807000822694682
:1025000040F20A6001F098F981464946E1A0FDF7E2
:10251000AFFE23208DF8000083208DF8010060209D
:102520008DF8020000208DF80300F0B28DF8040051
:10253000300A8DF8050000208DF806008DF80700A0
:102540000822694640F20A6001F076F98146494660
:10255000D9A0FDF78DFE23208DF8000084208DF892
:10256000010060208DF8020000208DF80300F8B211
:102570008DF80400380A8DF8050000208DF806005B
:102580008DF807000822694640F20A6001F054F90C
:1025900081464946D3A0FDF76BFE23208DF800004D
:1025A00005208DF8010010208DF8020000208DF824
:1025B000030080208DF8040000208DF805008DF8C0
:1025C00006008DF807000822694640F20A6001F013
:1025D00033F981464946CEA0FDF74AFE23208DF807
:1025E000000006208DF8010010208DF80200002068
:1025F0008DF8030008F0FF008DF804004FEA182062
:102600008DF8050000208DF806008DF807000822DF
:10261000694640F20A6001F00FF981464946C5A0BB
:10262000FDF726FE23208DF8000000208DF8010024
:1026300018208DF8020001208DF803008A208DF803
:10264000040001208DF8050000208DF80600802090
:102650008DF807000822694640F20A6001F0ECF8A4
:1026600081464946BFA0FDF703FE2F208DF80000EC
:1026700000208DF8010018208DF8020002208DF84E
:10268000030001208DF8040000208DF805008DF86E
:1026900006008DF807000822694640F20A6001F042
:1026A000CBF881464946B7A0FDF7E2FD2F208DF813
:1026B000000000208DF801001A208DF80200002093
:1026C0008DF803008DF804008DF805008DF80600E4
:1026D0008DF807000822694640F20A6001F0ACF864
:1026E00081464946B3A0FDF7C3FD23208DF80000C5
:1026F00000208DF801001A208DF8020001208DF8CD
:10270000030010208DF8040000208DF80500412002
:102710008DF8060060208DF807000822694640F217
:102720000A6001F089F881464946ADA0FDF7A0FD99
:102730000B2C63D2DFE804F06206622B5062626207
:10274000072C510000BF23208DF8000000208DF8D9
:1027500001001A208DF8020002208DF803002020CD
:102760008DF8040000208DF8050064208DF8060027
:1027700060208DF807000822694640F20A6001F0E7
:102780005BF8814649469EA0FDF772FD82E100BFDD
:1027900023208DF8000000208DF801001A208DF80C
:1027A000020002208DF8030020208DF80400002094
:1027B0008DF805006C208DF8060060208DF807006C
:1027C0000822694640F20A6001F036F8814649461F
:1027D0008BA0FDF74DFD5DE100BF23208DF80000CB
:1027E00000208DF801001A208DF8020002208DF8DB
:1027F000030010208DF80400002011E149E10000E1
:102800005468652073746F702072656D6F746520F5
:102810006E6F646520726573756C743A2025640A66
:102820000000000054686520526573657420636F72
:102830006D6D756E69636174696F6E207265737515
:102840006C743A2025640A0054686520536574202E
:102850006F7065726174696E67204D6F6465207278
:102860006573756C743A2025640A0000546865200D
:10287000436865636B206F7065726174696E672071
:102880006D6F646520726573756C743A2025640AF7
:10289000000000005468652053657420696E6974F7
:1028A00069616C20737065656420726573756C7402
:1028B0003A2025640A00000054686520536574209E
:1028C000696E697469616C20616363656C657261CE
:1028D00074696F6E20726573756C743A2025640A92
:1028E000000000005468652053657420696E6974A7
:1028F00069616C20646563656C65726174696F6E93
:1029000020726573756C743A2025640A000000001B
:102910005468652044697361626C6520636F622D41
:1029200069642073796E6320726573756C743A20E4
:1029300025640A005468652053657420636F6D6DCB
:10294000756E69636174696F6E206379636C65206D
:10295000706572696F6420726573756C743A2025B6
:10296000640A00005468652044697361626C6520E4
:102970005450444F20726573756C743A2025640A74
:102980000000000054686520446566696E65732028
:10299000746865207472616E736D697373696F6EAC
:1029A000207479706520726573756C743A202564A3
:1029B0000A00000054686520446566696E657320EE
:1029C000746865206E756D626572206F6620766131
:1029D0006C696420726573756C743A2025640A0012
:1029E0005468652031413030682D303168206D6188
:1029F0007020726573756C743A2025640A000000BB
:102A00005468652031413030682D303268206D6166
:102A1000707320726573756C743A2025640A000027
:102A20008DF8050077208DF8060060208DF80700EE
:102A30000822694640F20A6000F0FEFE81464946DF
:102A4000AFF24400FDF714FC23208DF800000020B5
:102A50008DF801001A208DF8020003208DF8030084
:102A600010208DF8040000208DF8050078208DF8E6
:102A7000060060208DF807000822694640F20A60CF
:102A800000F0DAFE81464946AFF28C00FDF7F0FB1C
:102A900000E000BF00BF2F208DF8000000208DF85F
:102AA00001001A208DF8020000208DF80300042C8C
:102AB00001D00A2C03D103208DF8040002E002208B
:102AC0008DF8040000208DF805008DF806008DF8C3
:102AD00007000822694640F20A6000F0ADFE814618
:102AE0004946FEA0FDF7C4FB23208DF8000000201E
:102AF0008DF8010018208DF8020001208DF80300E8
:102B00008A208DF8040001208DF8050000208DF842
:102B100006008DF807000822694640F20A6000F0BE
:102B20008BFE81464946F8A0FDF7A2FB23208DF8D5
:102B3000000000208DF8010014208DF80200012013
:102B40008DF803000A208DF8040002208DF805009E
:102B500000208DF8060080208DF8070008226946C5
:102B600040F20A6000F068FE81464946EDA0FDF79C
:102B70007FFB2F208DF8000000208DF8010014202D
:102B80008DF8020002208DF8030001208DF804006A
:102B900000208DF805008DF806008DF8070008224A
:102BA000694640F20A6000F047FE81464946AFF2AE
:102BB0002C20FDF75DFB2F208DF8000000208DF804
:102BC000010016208DF8020000208DF803008DF81A
:102BD00004008DF805008DF806008DF80700082226
:102BE000694640F20A6000F027FE81464946D5A0BA
:102BF000FDF73EFB23208DF8000000208DF801003A
:102C000016208DF8020001208DF8030010208DF8A9
:102C1000040000208DF8050040208DF8060060209B
:102C20008DF807000822694640F20A6000F004FEB1
:102C300081464946D0A0FDF71BFB0B2C55D2DFE89F
:102C400004F0540654203A54545407213B0000BF6A
:102C500023208DF8000000208DF8010016208DF84B
:102C6000020002208DF8030020208DF804000020CF
:102C70008DF805007A208DF8060060208DF8070099
:102C800034E000BF23208DF8000000208DF8010003
:102C900016208DF8020002208DF8030020208DF808
:102CA000040000208DF80500FF208DF8060060204C
:102CB0008DF807001AE000BF23208DF800000020E7
:102CC0008DF8010016208DF8020002208DF8030017
:102CD00010208DF8040000208DF8050071208DF87B
:102CE000060060208DF8070000E000BF00BF08224A
:102CF000694640F20A6000F09FFD81464946A6A061
:102D0000FDF7B6FA2F208DF8000000208DF80100A5
:102D100016208DF8020000208DF8030002208DF8A7
:102D2000040000208DF805008DF806008DF80700DE
:102D30000822694640F20A6000F07EFD814649465D
:102D40009DA0FDF795FA23208DF8000000208DF856
:102D5000010014208DF8020001208DF803000A20E4
:102D60008DF8040002208DF8050000208DF8060083
:102D70008DF807000822694640F20A6000F05CFD09
:102D80008146494694A0FDF773FA01208DF80000B2
:102D90000A208DF8010000208DF802008DF8030054
:102DA0008DF804008DF805008DF806008DF80700F9
:102DB0000222694600F040FD814649468EA0FDF79B
:102DC00057FA00208DF800008DF801008DF8020000
:102DD0008DF803008DF804008DF805008DF80600CD
:102DE0008DF807000822694640F20A7000F024FDC1
:102DF0008146694640F20A7000F0CAFC81469DF89F
:102E0000001086A0FDF734FA00208DF800008DF840
:102E100001008DF802008DF803008DF804008DF894
:102E200005008DF806008DF807000822694680200D
:102E300000F002FD814649467EA0FDF719FA802088
:102E40008DF8000000208DF801008DF802008DF84B
:102E500003008DF804008DF805008DF806008DF84C
:102E600007000822694640F20A2000F0E5FC81468E
:102E7000494678A0FDF7FCF906208DF800000020F7
:102E80008DF801008DF802008DF803008DF8040024
:102E90008DF805008DF806008DF8070008226946B8
:102EA00040F20A2000F0C8FC81464946AFF24C507F
:102EB000FDF7DEF907208DF8000000208DF80100F5
:102EC0008DF802008DF803008DF804008DF80500E0
:102ED0008DF806008DF807000822C3E054686520CD
:102EE000746865206E756D626572206F662076610C
:102EF0006C696420656E74726965732072657375A0
:102F00006C743A2025640A0054686520456E61623D
:102F10006C65205450444F20726573756C743A2070
:102F200025640A005468652044697361626C6520F9
:102F30005250444F20726573756C743A2025640AB0
:102F40000000000054686520446566696E65732062
:102F5000746865206E756D626572206F662076619B
:102F60006C696420656E747269657320726573752F
:102F70006C743A2025640A0054686520636F6E748F
:102F8000726F6C20776F726420726573756C743A1F
:102F90002025640A00000000546865203136303076
:102FA000682D303268206D61707320726573756CA6
:102FB000743A2025640A0000546865206D617070C1
:102FC000696E67207265636F726420726573756CD9
:102FD000743A2025640A000054686520456E7361C8
:102FE000626C65205250444F20726573756C743A60
:102FF0002025640A00000000546865205374617243
:10300000742072656D6F7465206E6F6465207265E3
:1030100073756C743A2025640A00000054686520BA
:103020004865617274626561742069733A20256431
:103030000A0000005468652053796E6320636F6D49
:103040006D616E6420726573756C743A2025640A34
:103050000000000054686520726573756C743A2036
:1030600025640A00694640F20A2000F0E5FB81462B
:103070004946AFF22000FDF7FBF80F208DF8000065
:1030800000208DF801008DF802008DF803008DF806
:1030900004008DF805008DF806008DF80700082261
:1030A000694640F20A2000F0C7FB8146494603A06A
:1030B000FDF7DEF80020BDE8FC87000054686520BD
:1030C000456E61626C6520726573756C743A20257B
:1030D000640A00007047000008B508490968C9087B
:1030E0004FF47A72B1FBF2F14143009100BF00BF8F
:1030F00000994A1E00920029F9D108BD0000002065
:1031000070477CB504462F208DF8000000208DF814
:103110000100E0B28DF80200200A8DF80300200CB7
:103120008DF80400200E8DF8050000208DF80600B3
:103130008DF807000622694640F20A2000F07CFB69
:10314000054628467CBD1CB52F208DF800000020C8
:103150008DF801008DF802008DF803008DF8040051
:103160008DF805008DF806008DF8070006226946E7
:1031700040F20A2000F060FB044620461CBD704768
:1031800010B50E480068C06800F0010078B10C4925
:1031900008698047002009490968486200BF642027
:1031A00006490968C86264210448C16000BF6FF025
:1031B000010002490968086110BD000038030020C1
:1031C0006000002010B50268204B98420ED0204BC2
:1031D00098420BD0B0F1804F08D01E4B984205D0DA
:1031E0001D4B984202D01D4B984203D122F0700231
:1031F0004B681A43154B98420ED0154B98420BD092
:10320000B0F1804F08D0134B984205D0124B984232
:1032100002D0124B984203D122F44072CB681A4379
:1032200022F080034C6943EA040202608B68C362A7
:103230000B688362054B984202D0054B984201D13E
:103240000B6903630123436110BD0000002C0140A2
:10325000003401400004004000080040000C004021
:1032600070B505466C6A0020E085E0842046FEF7D4
:10327000F3FD70BD0168C96821F490710268D160E6
:103280000168496921F0010102685161202180F83B
:103290003A10704710B504462068C06820F040001E
:1032A0002168C860202084F839002046FFF765F8BF
:1032B000002010BD70B5044694F83A00222847D18A
:1032C000A068B0F5805F0CD1206950B90025A66ACE
:1032D00020684068C0F308003080A06A801CA062AB
:1032E00015E0A56A0026A068B0F5805F03D0A0684D
:1032F00028B9206918B920684068287004E020685F
:10330000406800F07F002870A06A401CA062E08D39
:10331000401E80B2E085C8B92068C06820F0200057
:103320002168C8602068C06820F480702168C86087
:103330002068406920F0010021684861202084F85D
:103340003A002046FEF76CFF002070BD0020FCE72D
:103350000220FAE770B504462168096921F440515A
:10336000E2681143226811612269A1681143626910
:1033700041EA02052168C96841F20C629143294380
:103380002268D1602168496921F44071A269114322
:10339000226851612D4A2168914202D1FEF726FA36
:1033A00001E0FEF713FA00EBC00101EB00116268C7
:1033B0009200B1FBF2F100EBC00202EB0012636875
:1033C0009B00B2FBF3F26423B2FBF3F202EBC20305
:1033D00003EB0212A1EB8201322202EB0111642203
:1033E000B1FBF2F101F0F00100EBC00202EB0012C0
:1033F00063689B00B2FBF3F26423B2FBF3F201EBD0
:10340000021200EBC00101EB001163689B00B1FBED
:10341000F3F100EBC00303EB00136668B600B3FBE7
:10342000F6F36426B3FBF6F303EBC30606EB0313D4
:10343000A1EB8301322303EB01116423B1FBF3F110
:1034400001F00F0111442268916070BD0038014005
:10345000014691F83900212828D18868B0F5805FAD
:103460000BD1086948B90A6A1088C0F308000B68D4
:103470005860086A801C086205E00B6A581C0862E4
:1034800018780B685860C88C401E80B2C88458B940
:103490000868C06820F080000B68D8600868C068C1
:1034A00040F040000B68D860002070470220FCE725
:1034B0002DE9F04104460D4617469846069E21E048
:1034C000701CF8B12EB1FEF711F8A0EB0800B04265
:1034D00018D92068C06820F4D0702168C8602068BE
:1034E000406920F0010021684861202084F83900FB
:1034F00084F83A0000BF002084F8380000BF0320A1
:10350000BDE8F081206800682840A84201D1012070
:1035100000E00020B842D3D00020F1E710B5064803
:10352000FEF79CFC00BF012204490348FEF740FE61
:103530000028F8D110BD00001C0200200E00002061
:1035400008B50E4800680068C0F34010A8B14FF4F9
:103550007A73012269460948FEF7BEFD08480078E3
:1035600040280ADA9DF800000649054A1278885476
:1035700003480078401C0249087008BD5C02002026
:103580001A0000209C02002000BFFEE702480068ED
:10359000C0F30220704700000CED00E010B50028D9
:1035A00004DB0A07130E054A135406E00A07140E3B
:1035B000034A00F00F031B1FD45410BD00E400E0C9
:1035C00018ED00E030380A2801D2012070470020B1
:1035D000704700BF7047000010B5044613A0616932
:1035E000FCF746FEA16B6069081A052809DA206914
:1035F000002806DDA06BFFF784FD12A0FCF738FE63
:1036000012E0A16B6069084405280ADA20690028E5
:1036100007DAA16B4842FFF774FD12A0FCF728FE01
:1036200002E0204600F090F9002010BD4465736967
:103630007265642076656C6F636974793A25640AF3
:10364000000000004920616D20636F6E74726F6C22
:103650006C696E6720746865207370656564310AF3
:10366000000000004920616D20636F6E74726F6C02
:103670006C696E6720746865207370656564320AD2
:103680000000000010B50446E169A06A081A0A2883
:103690000ADD606810F1050F06DA0020FFF731FD42
:1036A0000CA0FCF7E5FD12E0E169606A081A10F170
:1036B0000A0F09DA6068052806DD0020FFF721FD02
:1036C0000AA0FCF7D5FD02E02046FFF785FF0020A9
:1036D00010BD0000496E2074686520646F776E200D
:1036E0006C696D69746174696F6E0A00496E20744B
:1036F0006865207570206C696D69746174696F6E9E
:103700000A0000002DE9F0418AB004460D46164635
:103710001F46DDF840801C481C4908600846476089
:10372000C0F80880C46006614561002101764176D9
:1037300081760121C176002101774177FDF70EFBEB
:1037400018B101200AB0BDE8F08100200590069074
:1037500001200790002000900190029003900490B7
:10376000012008900E20099069460848FDF785F968
:1037700008B10220E6E70548FDF7FCFB08B103208D
:10378000E0E70020DEE7000000640040DC020020EB
:1037900070B504460D4600211648FDF7F3F920B92F
:1037A00015A0FCF765FD002070BD2B46154A0021D1
:1037B0001048FDF7FBF920B113A0FCF759FD0020DC
:1037C000F2E710480068A04205D10E48806810B9A1
:1037D0000C48C06858B10B48C368826801680EA0E5
:1037E000FCF746FD12A0FCF743FD0020DCE705488E
:1037F000007CD9E7DC0200204E6F20646174610A0E
:10380000000000001C03002043616E6E6F74207284
:103810006561640A0000000069643A25642C20494F
:1038200044453A25642C205254523A25640A00003B
:103830004572726F720A0000F8B504460D461646CE
:10384000012000900C480460446000200A49886010
:10385000C860084606616B462A460848FDF762F8CC
:1038600008B10120F8BD00BF0448FDF75CFA032849
:10387000FAD10020F6E7000004030020DC0200205B
:1038800010B5044600204FF0E0210861FEF73AFA37
:103890002046E11704EB5171C1F3CF01014A1180B9
:1038A00010BD00000400002070B504464FF47A708B
:1038B00094FBF0F594FBF0F100FB114603E00748A0
:1038C00000F00EF86D1E002DF9D12EB14FF47A7173
:1038D00006FB01F000F004F870BD000040420F004C
:1038E0000146114A12884A434FF0E0235A610022F0
:1038F0009A611A46126942F001021A6100BF4FF044
:10390000E022106900F001021AB100F48032002AAE
:10391000F5D04FF0E022126922F001024FF0E023CF
:103920001A6100229A6170470400002000BF054A16
:10393000126802F04002002AF9D0C2B2014B1B1DEE
:103940001A6070470038014010B50446606810F1F5
:10395000050F02DA6069FFF7D4FB6068052802DD15
:103960006069FFF7CEFB002010BD000000B585B0F8
:1039700000BF00BF2848806940F0400026498861A8
:103980000846806900F04000009000BF00BF00BF03
:1039900000BF00BF0846806940F0400088610846CB
:1039A000806900F04000009000BF00BF00BF00BF72
:1039B00000BF0846806940F00400886108468069BD
:1039C00000F00400009000BF00BF00BF1020019075
:1039D00000200290012003900320049001A90F48C9
:1039E000FDF7CCFB082001900020029001200390FD
:1039F0000320049001A90948FDF7C0FB01200190B4
:103A000000200290022003900320049001A90448A2
:103A1000FDF7B4FB05B000BD0010024000180140E6
:103A20000008014070B50446002514B10120224968
:103A300008702148007848B310212048FDF73EFD6A
:103A400050B108211D48FDF739FD28B101211C485E
:103A5000FDF734FD012819D10A20FFF725FF0020CA
:103A60001549087010211548FDF728FD00B90125FA
:103A700008211248FDF722FD00B902250121104856
:103A8000FDF71CFD012815D1032513E010210B487B
:103A9000FDF714FD01280DD108210848FDF70EFDA2
:103AA000012807D101210648FDF708FD10B90120C2
:103AB00001490870284670BD190000200018014017
:103AC0000008014000B585B000BF00BF1E488069F6
:103AD00040F008001C4988610846806900F0080031
:103AE000009000BF00BF00BF00BF00BF0846806954
:103AF00040F0400088610846806900F04000009076
:103B000000BF00BF00BF2020019001200290039061
:103B10000320049001A90D48FDF730FB20200190FF
:103B200001A90B48FDF72AFB00BF0122202107480D
:103B3000FDF7D6FC00BF00BF012220210448FDF79D
:103B4000CFFC00BF05B000BD00100240000C0140DA
:103B50000018014092B00025002641F2BE50ADF899
:103B60004000ADF842004FF47A70ADF8440041F2E5
:103B700088310691502003904FF4C8710E914AF697
:103B8000A9200F90FDF7B8FC4FF4E01000F0AAF95F
:103B90004820FFF775FE4FF4E13000F0E9F9FFF738
:103BA00091FF4FF4964000F0CBF8FFF7DFFE0020C6
:103BB00002239A044FF4E0010090FFF7A3FD33A025
:103BC000FCF756FBBDF844000090BDF84220BDF85C
:103BD00040100920069BFEF7F1FB31A0FCF748FBE3
:103BE0001420FFF761FE4FE00020FFF71BFF0446A3
:103BF0002046012C04D0022805D003281ED11AE04B
:103C0000FFF7A1FA1BE001260898079007990B918E
:103C100029490B98411A0A9128A00A99FCF728FB18
:103C20002FA00B99FCF724FB0698FFF76AFA35A042
:103C3000FCF71EFB03E0FCF79CFD00E000BF00BFAB
:103C4000FCF7EBFD0590FCF7B0FD0890FCF71EFEBD
:103C5000029032A0029B089A0599FCF709FB2EB14D
:103C600001A800F072F901A8FFF70CFD681CC5B2AD
:103C70001E2D06D100BF20212E48FDF727FC00BFD6
:103C800000251420FFF710FEAEE7000063616E20F0
:103C9000696E69742066696E6973686564210A00DB
:103CA0006D6F746F7220696E69742066696E6973D6
:103CB000686564210A000000FBFF01006A6F696EFD
:103CC000742E506F736974696F6E5B55704C696DBB
:103CD00069746174696F6E5D3A2025640A000000A2
:103CE0006A6F696E742E506F736974696F6E5B448E
:103CF0006F776E4C696D69746174696F6E5D3A209F
:103D000025640A0053746172742074686520636FBF
:103D10006E74726F6C206D6F64650A0056656C3A44
:103D200025642C20506F733A25642C20546F723A0E
:103D300025640A0000180140014608687047000029
:103D400010B586B0044600BF00BF4048806940F00F
:103D500020003E4988610846806900F020000190FB
:103D600000BF00BF00BF00BF00BF0846806940F031
:103D7000040088610846806900F00400019000BFDB
:103D800000BF00BF00BF00BF0846806940F00400CC
:103D900088610846806900F00400019000BF00BF00
:103DA00000BF00BF00BF0846C06940F40030C861D2
:103DB0000846C06900F40030019000BF00BF00BF9A
:103DC000042002900220039001200490032005901B
:103DD00002A91F48FDF7D2F90820029000200390A5
:103DE00002A91B48FDF7CAF9802002900120039028
:103DF00004900320059002A91648FDF7BFF9164864
:103E0000164908600846446000218160C160016174
:103E100081610C214161FEF7CBF810480068C06851
:103E200040F020000D490968C8602620FDF79FFB7F
:103E3000032211462620FDF7AAFB00BF00228021A5
:103E40000448FDF74DFB00BF06B010BD0010024056
:103E50000008014000140140004400405C020020C2
:103E600070B506460D460024002028703220FFF76A
:103E70001BFD00BF04E00848005D3055601CC4B263
:103E8000064800788442F6DB044800782870002059
:103E90000249087070BD00009C0200201A0000203A
:103EA00070B504460D4600BF012280210A48FDF787
:103EB00017FB00BF4FF47A732A4621460748FEF7E6
:103EC000F3F900200649087000BF00228021024853
:103ED000FDF706FB00BF70BD001401405C0200202E
:103EE0001A00002030B58FB005460124282105A80E
:103EF000FCF744FB14216846FCF740FB01200590C9
:103F0000000406900020079002200C90C1030D9140
:103F10000E9505A8FDF7C4FC04460CB100BFFEE7F2
:103F20000F20009002200190002002904FF480604A
:103F300003900020049002216846FDF77BFB0446B5
:103F40000CB100BFFEE70FB030BD01466FF091022B
:103F500048685043486141F2BE523823486803FB29
:103F600000208887486803FB0020C887002070472E
:103F700010B5044609480A49086008464460002113
:103F80008160C160016181610C214161FEF710F81F
:103F9000012204490248FEF70BF910BD0038014028
:103FA0001C0200200E00002030B595B0054613AB72
:103FB00012AA09A9284600F03FFA044614B1204687
:103FC00015B030BD0020149026E0224909689DF804
:103FD000502001EBC20113AB11AA486801A900F0FF
:103FE0002BFA04460CB12046EAE709A901A800F023
:103FF000AFFC60B99DF844009DF84810884201DD8F
:104000000220DDE79DF85000124988750AE09DF80E
:104010005000401CC0B214900E48007D9DF8501016
:104020008842D2DC00BF0B48007D9DF850108842CA
:1040300001D10420C4E714A9284600F0DDFA0446A3
:104040000CB12046BCE79DF850000249487500209D
:10405000B6E70000600000202DE9F0419AB09C48CE
:10406000847D007DA04202DC1AB0BDE8F081984951
:10407000096801EBC40106AB07AA486808A900F06B
:10408000DBF908A993A0FCF7F3F8002644E0904878
:10409000008B0121B1400840D8B122218FA0FCF74C
:1040A000E7F8304600F042FB894924314718394689
:1040B0008BA0FCF7DDF8222188A0FCF7D9F8304668
:1040C00000F034FB82492431084410A941F826004D
:1040D00018E0304600F02AFB7D492431085810A929
:1040E00041F826007A48C07D30B910A850F8261053
:1040F0007CA0FCF7BDF805E010A850F826107AA0C7
:10410000FCF7B6F89DF81C00401EB04202D078A023
:10411000FCF7AEF8701CC6B29DF81C008642B6DBF8
:1041200074A0FCF7A5F801F007F86948407D0B285A
:104130000DD2DFE800F0060D151E27323F4E5F72EC
:1041400087006349096851F834008047054690E0CC
:104150005F4A126852F8341010988847054688E084
:104160005B4B1B6853F83420DDE91001904705468E
:104170007FE0574F3F6857F8343010A807C898477A
:10418000054676E0DFF848C1DCF800C05CF8347022
:1041900010A80FC8B84705466BE01498DFF830C187
:1041A0000090DCF800C05CF8347010A80FC8B84765
:1041B00005465EE0DDE91401DFF814C1CDE9000138
:1041C000DCF800C05CF8347010A80FC8B84705468A
:1041D0004FE0DDE914121698DFF8F4C0CDE90012C3
:1041E0000290DCF800C05CF8347010A80FC8B84723
:1041F00005463EE0DDE91423DDE91610DFF8D0C006
:10420000CDE90023CDE90210DCF800C05CF8347081
:1042100010A80FC8B84705462BE0DDE91523DDE9F6
:104220001710CDE90123CDE903101498DFF8A0C0E1
:104230000090DCF800C05CF8347010A80FC8B847D4
:10424000054616E0DDE91623DDE91810CDE9022365
:10425000CDE90410DDE91401DFF874C0CDE90001F7
:10426000DCF800C05CF8347010A80FC8B8470546E9
:1042700000BF00BF00F00EFF9DF8180001280CD110
:104280001348C07D20B929461BA0FBF7F1FF07E0CA
:1042900029461BA0FBF7ECFF02E018A0FBF7E8FFA4
:1042A0000B4890F8EC0088B10948D0F8F0000A21DA
:1042B000B0FBF1F201FB12070548D0F8F000B0FBAB
:1042C000F1F83A46414611A0FBF7D2FF00BFCBE61A
:1042D000600000200D0A25732800000025630000FF
:1042E00025730000256C640030582558000000003C
:1042F0002C000000290000003D256C753B0D0A00D4
:104300003D305825583B0D0A0000000046756E638D
:1043100074696F6E2052756E2054696D653A25641C
:104320002E2531646D730D0A00000000F0B50346C0
:10433000154600200022002600245BE01F782C2F69
:1043400001D104B901221F78292F01D01F780FB99C
:1043500004B950E0002E3AD11F78302F02DB1F78CD
:10436000392F17DD1F782D2F14D01F782B2F11D048
:104370001F78612F02DB1F78662F0BDD1F78412F1E
:1043800002DB1F78462F05DD1F78582F02D01F78DB
:10439000782F0CD102B12EE01F78612F03DB1F783C
:1043A000203F0F7001E01F780F70491C1FE01F783D
:1043B000222F04D102B11EE00126012417E01F784C
:1043C000202F14D01F782C2F11D0FF2613E01F7838
:1043D000222F00D1002402B10DE044B11F785C2FE0
:1043E00002D15B1C471CF8B21F780F70491C471C98
:1043F000F8B25B1CA2E700BF00270F702E70F0BD63
:1044000010B50446002010700BE020780870641C82
:10441000491C1078401C10701078984201DB012074
:1044200010BD2078202802D020780028EDD100206F
:10443000087000BFF4E700002DE9FF4F85B080460B
:1044400089460027002004900390012002904FF03D
:10445000000B002544461DE02078202816D005F0EA
:104460007F00052812DA0DB945F0800505F07F00C0
:10447000042803D120782A2800D00EE0207805F007
:104480007F010DF80100681CC5B202E0852D00D146
:1044900003E0641C20780028DED100BF8DB100202D
:1044A00005F07F010DF8010051A1684600F050FAB7
:1044B00018B900210898017002E0012108980170E4
:1044C00000254FF0000A444614E0641C0AF1010084
:1044D00000F0FF0A2078202802D020782A2809D16D
:1044E000204600F0A7F90646282E03D02A2E01D038
:1044F000CDF810A02078282802D020780028E4D118
:104500004446049810B10498401C04444FF0000A3B
:10451000002654E0207810B94FF0010A50E02078CE
:10452000282803D116B9781CC7B213E020782928AF
:1045300008D13EB917B1781EC7B201E04FF0010AA9
:1045400047B93DE02078222804D10EB9012000E0CF
:104550000020064647B9207820282FD0207889F8F7
:10456000000009F1010929E020782C2804D101205C
:104570000290681CC5B214E02078202811D0207861
:1045800028280ED04DB9BBF1050F06DA20780DF8BA
:104590000B000BF1010000F0FF0B0298401CC0B2B1
:1045A0000290012F0AD10298022807D10298401CDC
:1045B000C0B202900398401CC0B20390641CA9E7EB
:1045C00000BF0398012809D100200DF80B0008A1B5
:1045D000684600F0BDF908B90020039007990398D8
:1045E0000870002089F80000504609B0BDE8F08F3F
:1045F000766F6964000000002DE9F043B5B0054610
:104600000F460024002604E000213D488155701C1F
:10461000C6B20A2EF8DB06E06D1C287818B9012016
:1046200035B0BDE8F08328782828F5D16D1C61E00D
:1046300034AA69462846FFF779FE064635449DF8B8
:10464000D00020B1012827D0FF284CD149E09DF8A7
:10465000000000B333A9684600F0F7F806460EB133
:104660000220DDE7204600F061F825490A31339A3F
:104670000A50A1F12400008B0121A1408843204968
:104680001A39088304211E480155601CC4B20A2C43
:1046900001DD0320C4E726E0684600F075F9401C00
:1046A00000F0FF08204600F041F815490A3100EB00
:1046B00001094946684600F05CF911481A38018B37
:1046C0000120A040014388B20D491A3908830C48E3
:1046D00000F80480601CC4B20A2C01DD03209FE7AF
:1046E00001E002209CE700BF2878292801D0287823
:1046F00000B900E09CE700BF3C70002090E700009C
:104700007A0000200020074A128802F400423AB1E1
:10471000044A11780022044B5A541846014B1A805F
:10472000704700000C0000205401002002460020C9
:10473000002105E0044B5B5C0344D8B24B1CD9B2AA
:104740009142F7DB704700007A00002010B5044664
:1047500004EBC40000EB04100122C2EB800081B224
:104760004FF47A7000F0B8FC01200149C87510BD03
:104770006000002010B50246012000E050430B000D
:10478000A1F10104E1B2F9D110BD000070B500261D
:10479000FFF7B8FF064606B970BD17488168304676
:1047A000884704461CB91449C868804721E0304650
:1047B00000F0F6F80546012D00D02C46CCB1012CB6
:1047C00006D0022C08D0032C0AD0042C10D10BE008
:1047D0000AA0FBF74DFD0BE00BA0FBF749FD07E03E
:1047E0000CA0FBF745FD03E00DA0FBF741FD00BF6A
:1047F00000BF00BFD0E7000060000020BAAFCAFDD4
:10480000B4EDCEF3210D0A00B2CECAFDB4EDCEF365
:10481000210D0A00B2CECAFDCCABB6E0210D0A00D4
:10482000CEB4D5D2B5BDC6A5C5E4B5C4BAAFCAFD30
:10483000210D0A000146491C00E0491C0878202887
:1048400001D10029F9D1087870472DE9F04F0546CC
:104850000F4600264FF00A09B3462C460020386068
:1048600034E02078392802DC2078302811DA2878E2
:104870002D2802D028782B2800D156B12078462840
:1048800002DC2078412804DA2078582817D1012E3C
:1048900015D12078412801DB4FF0100928782D2808
:1048A00003D14FF0020B6D1C0FE028782B2803D1A9
:1048B0004FF0010B6D1C08E0701CC6B205E02078BB
:1048C00000B904E00120BDE8F08F641CC9E700BF17
:1048D0002C46B9F1100F0FD1032E01DA0220F2E7B6
:1048E0002078302806D16078582803D1A41CB01E47
:1048F000C6B204E00320E6E70EB90420E3E71BE0BC
:104900000EB1701EC6B22078392806DC2078302817
:1049100003DB2078A0F1300A02E02078A0F1370A0A
:1049200031464846FFF726FF39680AFB0010386019
:10493000641C207800B900E0E2E700BFBBF1020F81
:1049400004D13868C0F10008C7F800800020BAE739
:1049500002460AE010780B78984201D00120704797
:10496000107800B902E0521C491CF3E700BF002098
:10497000F5E706E002780A70027802B902E0401C0E
:10498000491CF7E700BF70470146002005E00A78A0
:1049900002B903E0421CD0B2491CF8E700BF7047DF
:1049A00010B58CB004461E230BAA03A92046FFF7BE
:1049B00027FD0090009810B101200CB010BD9DF8AB
:1049C0002C00044400200B900EE040489DF82C2061
:1049D00050F8221003A8FFF7BBFF00B908E09DF8CC
:1049E0002C00401CC0B20B909DF82C000728ECD383
:1049F00000BF9DF82C00072863D2DFE800F0040513
:104A00003C5E6564630000BF31A0FBF731FC31A060
:104A1000FBF72EFC3FA0FBF72BFC4EA0FBF728FC7E
:104A20005CA0FBF725FC6BA0FBF722FC79A0FBF751
:104A30001FFC87A0FBF71CFC8CA0FBF719FC94A0C3
:104A4000FBF716FC98A0FBF713FC9DA0FBF710FCEE
:104A5000A2A0FBF70DFCA8A0FBF70AFCB4A0FBF793
:104A600007FCC1A0FBF704FCCCA0FBF701FCD8A01D
:104A7000FBF7FEFBA2E216A0FBF7FAFBE4A0FBF7B4
:104A8000F7FB00200B900EE0F14800689DF82C2009
:104A900000EBC2004168EFA0FBF7EAFB9DF82C0099
:104AA000401CC0B20B90EA48007D9DF82C10884253
:104AB000EADC07A0FBF7DCFB80E205A0FBF7D8FBF4
:104AC000CCE179E24DE221E2F4E100001C0000209B
:104AD0000D0A00002D2D2D2D2D2D2D2D2D2D2D2DA3
:104AE0002D2D2D2D2D2D2D2D2D2D2D2D55534D4174
:104AF00052542056332E352D2D2D2D2D2D2D2D2D6F
:104B00002D2D2D2D2D2D2D2D2D2D2D2D2D2D2D20E2
:104B10000D0A00002020202055534D415254CAC791
:104B2000D3C9414C49454E54454BBFAAB7A2B5C461
:104B3000D2BBB8F6C1E9C7C9B5C4B4AEBFDAB5F7E0
:104B4000CAD4BBA5BDBBD7E9BCFE2CCDA8B9FD20FE
:104B50000D0A0000CBFC2CC4E3BFC9D2D4CDA8B948
:104B6000FDB4AEBFDAD6FACAD6B5F7D3C3B3CCD04C
:104B7000F2C0EFC3E6B5C4C8CEBACEBAAFCAFD2CF8
:104B8000B2A2D6B4D0D02ED2F2B4CB2CC4E3BFC9DB
:104B90000D0A0000D2D4CBE6D2E2B8FCB8C4BAAF5A
:104BA000CAFDB5C4CAE4C8EBB2CECAFD28D6A7B3C5
:104BB000D6CAFDD7D62831302F3136BDF8D6C62C0F
:104BC000D6A7B3D6B8BACAFD29A1A2D7D6B7FBB427
:104BD000AE0D0A00A1A2BAAFCAFDC8EBBFDAB5D8C4
:104BE000D6B7B5C8D7F7CEAAB2CECAFD292CB5A57F
:104BF000B8F6BAAFCAFDD7EEB6E0D6A7B3D6313015
:104C0000B8F6CAE4C8EBB2CECAFD2CB2A2D6A7B39E
:104C1000D60D0A00BAAFCAFDB7B5BBD8D6B5CFD44A
:104C2000CABE2ED6A7B3D6B2CECAFDCFD4CABEBD99
:104C3000F8D6C6C9E8D6C3B9A6C4DC2CD6A7B3D665
:104C4000BDF8D6C6D7AABBBBB9A6C4DC2E0D0A00D8
:104C5000BCBCCAF5D6A7B3D63A7777772E6F706506
:104C60006E6564762E636F6D0D0A000055534D41DD
:104C70005254D3D037B8F6CFB5CDB3C3FCC1EE286C
:104C8000B1D8D0EBD0A1D0B4293A0D0A0000000071
:104C90003F3A202020202020BBF1C8A1B0EFD6FA57
:104CA000D0C5CFA20D0A000068656C703A202020A4
:104CB000BBF1C8A1B0EFD6FAD0C5CFA20D0A000053
:104CC0006C6973743A202020BFC9D3C3B5C4BAAF8E
:104CD000CAFDC1D0B1ED0D0A0A00000069643A2096
:104CE00020202020BFC9D3C3BAAFCAFDB5C44944F0
:104CF000C1D0B1ED0D0A0A006865783A2020202065
:104D0000B2CECAFD3136BDF8D6C6CFD4CABE2CBA93
:104D1000F3B8FABFD5B8F12BCAFDD7D6BCB4D6B418
:104D2000D0D0BDF8D6C6D7AABBBB0D0A0A0000007A
:104D30006465633A20202020B2CECAFD3130BDF830
:104D4000D6C6CFD4CABE2CBAF3B8FABFD5B8F12BA9
:104D5000CAFDD7D6BCB4D6B4D0D0BDF8D6C6D7AA73
:104D6000BBBB0D0A0A00000072756E74696D653A6E
:104D7000312CBFAAC6F4BAAFCAFDD4CBD0D0BCC6C2
:104D8000CAB13B302CB9D8B1D5BAAFCAFDD4CBD05B
:104D9000D0BCC6CAB13B0D0A0A000000C7EBB0B4D4
:104DA000D5D5B3CCD0F2B1E0D0B4B8F1CABDCAE425
:104DB000C8EBBAAFCAFDC3FBBCB0B2CECAFDB2A24B
:104DC000D2D4BBD8B3B5BCFCBDE1CAF82E0D0A00E5
:104DD0002D2D2D2D2D2D2D2D2D2D2D2D2D2D2D2D03
:104DE0002D2D2D2D2D2D2D2D2D2DD5FDB5E3D4AD16
:104DF000D7D32D2D2D2D2D2D2D2D2D2D2D2D2D2D93
:104E00002D2D2D2D2D2D2D2D2D2D2D200D0A00007C
:104E10002D2D2D2D2D2D2D2D2D2D2D2D2D2D2D2DC2
:104E20002D2D2D2D2D2D2D2D2DBAAFCAFDC7E5B55C
:104E3000A52D2D2D2D2D2D2D2D2D2D2D2D2D2D2D2A
:104E40002D2D2D2D2D2D2D2D2D2D2D2D200D0A000F
:104E50006000002025730D0A0000000059A0FBF738
:104E600007FA00200B901AE0664909689DF82C208B
:104E700001EBC20101AB02AA486803A9FFF7DCFA03
:104E8000604800689DF82C1050F8312003A95EA0FE
:104E9000FBF7EEF99DF82C00401CC0B20B9059486E
:104EA000007D9DF82C108842DEDCAFF2DC30FBF791
:104EB000DFF983E0AFF2E830FBF7DAF90BAA03A9D8
:104EC0002046FFF733FA9DF82C00C8B9694603A8BD
:104ED000FFF7BBFC0B909DF82C0020B94FA0009968
:104EE000FBF7C6F90EE09DF82C00042801D0022043
:104EF00063E54DA0FBF7BCF901204249C87501E00C
:104F000002205AE547A0FBF7B3F957E045A0FBF7AD
:104F1000AFF90BAA03A92046FFF708FA9DF82C0069
:104F2000C8B9694603A8FFF790FC0B909DF82C00C8
:104F300020B942A00099FBF79BF90EE09DF82C00E8
:104F4000042801D0022038E53FA0FBF791F90020AA
:104F50002C49C87501E002202FE532A0FBF788F943
:104F60002CE030A0FBF784F90BAA03A92046FFF739
:104F7000DDF99DF82C00C8B9694603A8FFF765FC68
:104F80000B909DF82C0078B91E49009881F8EC0030
:104F9000084690F8EC0018B130A0FBF769F907E07B
:104FA00035A0FBF765F903E0022006E5022004E5E1
:104FB0001CA0FBF75DF901E00120FEE400BF00202A
:104FC000FBE400002D2D2D2D2D2D2D2D2D2D2D2DE6
:104FD0002D2D2D2D2D2D2D2D2D2D2D2D2DBAAFCA55
:104FE000FD204944202D2D2D2D2D2D2D2D2D2D2D08
:104FF0002D2D2D2D2D2D2D2D2D2D2D2D2D2D2D2DE1
:10500000200D0A0060000020257320696420697368
:105010003A0D0A3058253038580D0A004845583A9C
:10502000305825580D0A00003136BDF8D6C6B2CE2C
:10503000CAFDCFD4CABE210D0A0000004445433A40
:10504000256C750D0A0000003130BDF8D6C6B2CE11
:10505000CAFDCFD4CABE210D0A00000052756E20D1
:1050600054696D652043616C63756C6174696F6E22
:10507000204F4E0D0A00000052756E2054696D6578
:105080002043616C63756C6174696F6E204F464696
:105090000D0A00000E480068006900F0010040B1F0
:1050A0000C48D0F8F0004FF6FF7108440949C1F8E8
:1050B000F0000848D0F8F00005490968496A08443A
:1050C0000449C1F8F0000846D0F8F000704700002D
:1050D000380300206000002038B504460D4600BFAC
:1050E00000BF1248C06940F004001049C86108467A
:1050F000C06900F00400009000BF00BF00BF0C4872
:105100000C4908600846456000218160C460016167
:10511000FCF726FE0748FCF757FE032211461E2027
:10512000FCF735FA1E20FCF722FA38BD00100240C9
:1051300000080040380300206FF0010009490968A9
:10514000086100BF000C07490968C86201460548AC
:10515000C16000BF00200349096848620249C1F8E4
:10516000F0007047380300206000002001607047A5
:105170000000000000000000010203040607080907
:10518000000000000102030401A00000B71DC104DB
:1051900000C1814001C0804101C0804100C1814007
:1051A00001C0804100C1814000C1814001C08041F7
:1051B00001C0804100C1814000C1814001C08041E7
:1051C00000C1814001C0804101C0804100C18140D7
:1051D00001C0804100C1814000C1814001C08041C7
:1051E00000C1814001C0804101C0804100C18140B7
:1051F00000C1814001C0804101C0804100C18140A7
:1052000001C0804100C1814000C1814001C0804196
:1052100001C0804100C1814000C1814001C0804186
:1052200000C1814001C0804101C0804100C1814076
:1052300000C1814001C0804101C0804100C1814066
:1052400001C0804100C1814000C1814001C0804156
:1052500000C1814001C0804101C0804100C1814046
:1052600001C0804100C1814000C1814001C0804136
:1052700001C0804100C1814000C1814001C0804126
:1052800000C1814001C0804101C0804100C1814016
:1052900000C0C101C30302C2C60607C705C5C404D6
:1052A000CC0C0DCD0FCFCE0E0ACACB0BC90908C846
:1052B000D81819D91BDBDA1A1EDEDF1FDD1D1CDC36
:1052C00014D4D515D71716D6D21213D311D1D010A6
:1052D000F03031F133F3F23236F6F737F53534F496
:1052E0003CFCFD3DFF3F3EFEFA3A3BFB39F9F83806
:1052F00028E8E929EB2B2AEAEE2E2FEF2DEDEC2CF6
:10530000E42425E527E7E62622E2E323E12120E065
:10531000A06061A163A3A26266A6A767A56564A455
:105320006CACAD6DAF6F6EAEAA6A6BAB69A9A868C5
:1053300078B8B979BB7B7ABABE7E7FBF7DBDBC7CB5
:10534000B47475B577B7B67672B2B373B17170B025
:105350005090915193535292965657975595945415
:105360009C5C5D9D5F9F9E5E5A9A9B5B9959589885
:10537000884849894B8B8A4A4E8E8F4F8D4D4C8C75
:1053800044848545874746868242438341818040E5
:10539000000001CC01D8001401F0003C002801E419
:1053A00001A0006C007801B40050019C0188004409
:1053B000303132333435363738394142434445464B
:1053C0004030580030313233343536373839616245
:1053D0006364656640307800040000080000000047
:1053E0000000000200010000100000003F0000006B
:1053F000646563006964000072756E74696D6500B0
:1054000068656C70000000006C6973740000000037
:1054100068657800766F69642077726974655F618A
:105420006464722875696E7433325F7420616464D9
:10543000722C75696E7433325F742076616C29004A
:10544000766F69642072733438355F73656E645F9C
:10545000646174612875696E74385F74202A62759E
:10546000662C2075696E74385F74206C656E290037
:1054700075696E7433325F7420726561645F616454
:1054800064722875696E7433325F7420616464726B
:1054900029000000766F69642064656C61795F6D36
:1054A000732875696E7431365F74206E6D732900D0
:1054B000766F69642064656C61795F7573287569BE
:1054C0006E7433325F74206E75732900EC540008DB
:1054D00000000020540100006C010008485500083D
:1054E000540100208C080000C80100081103112499
:1054F000F4321023010113EC53120812541B080854
:10550000041AF40C1A10081AF0081AF80413393D9A
:105510001B087010136D511B08140813A9381B08C1
:1055200094081AE1081AB00813A13E1B084008228B
:10553000381C204D4720123F140859401B088D0C81
:085540001A055F01DC00000008
:0400000508000131BD
:00000001FF
